Component: ARM Compiler 5.06 update 6 (build 750) Tool: armlink [4d35ed]

==============================================================================

Section Cross References

    usb_sil.o(i.USB_SIL_Init) refers to usb_init.o(.data) for wInterrupt_Mask
    usb_sil.o(i.USB_SIL_Read) refers to usb_regs.o(i.GetEPRxCount) for GetEPRxCount
    usb_sil.o(i.USB_SIL_Read) refers to usb_regs.o(i.GetEPRxAddr) for GetEPRxAddr
    usb_sil.o(i.USB_SIL_Read) refers to usb_mem.o(i.PMAToUserBufferCopy) for PMAToUserBufferCopy
    usb_sil.o(i.USB_SIL_Write) refers to usb_regs.o(i.GetEPTxAddr) for GetEPTxAddr
    usb_sil.o(i.USB_SIL_Write) refers to usb_mem.o(i.UserToPMABufferCopy) for UserToPMABufferCopy
    usb_sil.o(i.USB_SIL_Write) refers to usb_regs.o(i.SetEPTxCount) for SetEPTxCount
    usb_regs.o(i.SetDouBleBuffEPStall) refers to usb_regs.o(i.GetENDPOINT) for GetENDPOINT
    usb_int.o(i.CTR_HP) refers to usb_init.o(.data) for EPindex
    usb_int.o(i.CTR_HP) refers to usb_istr.o(.data) for wIstr
    usb_int.o(i.CTR_HP) refers to usb_istr.o(.data) for pEpInt_OUT
    usb_int.o(i.CTR_HP) refers to usb_istr.o(.data) for pEpInt_IN
    usb_int.o(i.CTR_LP) refers to usb_core.o(i.In0_Process) for In0_Process
    usb_int.o(i.CTR_LP) refers to usb_core.o(i.Setup0_Process) for Setup0_Process
    usb_int.o(i.CTR_LP) refers to usb_core.o(i.Out0_Process) for Out0_Process
    usb_int.o(i.CTR_LP) refers to usb_int.o(.data) for .data
    usb_int.o(i.CTR_LP) refers to usb_istr.o(.data) for wIstr
    usb_int.o(i.CTR_LP) refers to usb_init.o(.data) for EPindex
==============================================================================

Removing Unused input sections from the image.

    Removing usb_sil.o(.rev16_text), (4 bytes).
    Removing usb_sil.o(.revsh_text), (4 bytes).
    Removing usb_sil.o(.rrx_text), (6 bytes).
    Removing usb_regs.o(.rev16_text), (4 bytes).
    Removing usb_regs.o(.revsh_text), (4 bytes).
    Removing usb_regs.o(.rrx_text), (6 bytes).
    Removing usb_regs.o(i.ClearEPDoubleBuff), (32 bytes).
    Removing usb_regs.o(i.ClearEP_CTR_RX), (28 bytes).
    Removing usb_regs.o(i.ClearEP_CTR_TX), (28 bytes).
    Removing usb_regs.o(i.ClearEP_KIND), (32 bytes).
    Removing usb_regs.o(i.FreeUserBuffer), (52 bytes).
    Removing usb_regs.o(i.GetBTABLE), (12 bytes).
    Removing usb_regs.o(i.GetCNTR), (12 bytes).
    Removing usb_regs.o(i.GetDADDR), (12 bytes).
    Removing usb_regs.o(i.GetENDPOINT), (20 bytes).
    Removing usb_regs.o(i.GetEPAddress), (20 bytes).
    Removing usb_regs.o(i.GetEPDblBuf0Addr), (28 bytes).
    Removing usb_regs.o(i.GetEPDblBuf0Count), (32 bytes).
==============================================================================

Image Symbol Table

    Local Symbols

    Symbol Name                              Value     Ov Type        Size  Object(Section)

    ../../../Libraries/STM32F10x_StdPeriph_Driver/src/misc.c 0x00000000   Number         0  misc.o ABSOLUTE
    ../../../Libraries/STM32F10x_StdPeriph_Driver/src/stm32f10x_adc.c 0x00000000   Number         0  stm32f10x_adc.o ABSOLUTE
    ../../../Libraries/STM32F10x_StdPeriph_Driver/src/stm32f10x_dma.c 0x00000000   Number         0  stm32f10x_dma.o ABSOLUTE
    ../../../Libraries/STM32F10x_StdPeriph_Driver/src/stm32f10x_exti.c 0x00000000   Number         0  stm32f10x_exti.o ABSOLUTE
    ../../../Libraries/STM32F10x_StdPeriph_Driver/src/stm32f10x_flash.c 0x00000000   Number         0  stm32f10x_flash.o ABSOLUTE
    ../../../Libraries/STM32F10x_StdPeriph_Driver/src/stm32f10x_gpio.c 0x00000000   Number         0  stm32f10x_gpio.o ABSOLUTE
    ../../../Libraries/STM32F10x_StdPeriph_Driver/src/stm32f10x_i2c.c 0x00000000   Number         0  stm32f10x_i2c.o ABSOLUTE
    ../../../Libraries/STM32F10x_StdPeriph_Driver/src/stm32f10x_pwr.c 0x00000000   Number         0  stm32f10x_pwr.o ABSOLUTE
    ../../../Libraries/STM32F10x_StdPeriph_Driver/src/stm32f10x_rcc.c 0x00000000   Number         0  stm32f10x_rcc.o ABSOLUTE
    ../../../Libraries/STM32F10x_StdPeriph_Driver/src/stm32f10x_usart.c 0x00000000   Number         0  stm32f10x_usart.o ABSOLUTE
    ../../../Libraries/STM32_USB-FS-Device_Driver/src/usb_core.c 0x00000000   Number         0  usb_core.o ABSOLUTE
    ../../../Libraries/STM32_USB-FS-Device_Driver/src/usb_init.c 0x00000000   Number         0  usb_init.o ABSOLUTE
    ../../../Libraries/STM32_USB-FS-Device_Driver/src/usb_int.c 0x00000000   Number         0  usb_int.o ABSOLUTE
    ../../../Libraries/STM32_USB-FS-Device_Driver/src/usb_mem.c 0x00000000   Number         0  usb_mem.o ABSOLUTE
    ../../../Libraries/STM32_USB-FS-Device_Driver/src/usb_regs.c 0x00000000   Number         0  usb_regs.o ABSOLUTE
    ../../../Libraries/STM32_USB-FS-Device_Driver/src/usb_sil.c 0x00000000   Number         0  usb_sil.o ABSOLUTE
    ../../../Utilities/STM32_EVAL/STM3210B_EVAL/stm3210b_eval.c 0x00000000   Number         0  stm3210b_eval.o ABSOLUTE
    ../clib/../cmprslib/zerorunl2.c          0x00000000   Number         0  __dczerorl2.o ABSOLUTE
    ../clib/microlib/init/entry.s            0x00000000   Number         0  entry11a.o ABSOLUTE
    ../clib/microlib/init/entry.s            0x00000000   Number         0  entry10b.o ABSOLUTE
    ../clib/microlib/init/entry.s            0x00000000   Number         0  entry10a.o ABSOLUTE
    ../clib/microlib/init/entry.s            0x00000000   Number         0  entry9b.o ABSOLUTE
    ../clib/microlib/init/entry.s            0x00000000   Number         0  entry9a.o ABSOLUTE
    ../clib/microlib/init/entry.s            0x00000000   Number         0  entry8b.o ABSOLUTE
    ../clib/microlib/init/entry.s            0x00000000   Number         0  entry7a.o ABSOLUTE
    ../clib/microlib/init/entry.s            0x00000000   Number         0  entry5.o ABSOLUTE
    ../clib/microlib/init/entry.s            0x00000000   Number         0  entry2.o ABSOLUTE
    ../clib/microlib/init/entry.s            0x00000000   Number         0  entry.o ABSOLUTE
    ../clib/microlib/init/entry.s            0x00000000   Number         0  entry7b.o ABSOLUTE
    ../clib/microlib/init/entry.s            0x00000000   Number         0  entry8a.o ABSOLUTE
    ../clib/microlib/init/entry.s            0x00000000   Number         0  entry11b.o ABSOLUTE
    ../src/hw_config.c                       0x00000000   Number         0  hw_config.o ABSOLUTE
    ../src/main.c                            0x00000000   Number         0  main.o ABSOLUTE
    ../src/stm32_it.c                        0x00000000   Number         0  stm32_it.o ABSOLUTE
    ../src/system_stm32f10x.c                0x00000000   Number         0  system_stm32f10x.o ABSOLUTE
    ../src/usb_desc.c                        0x00000000   Number         0  usb_desc.o ABSOLUTE
    ../src/usb_endp.c                        0x00000000   Number         0  usb_endp.o ABSOLUTE
    ../src/usb_istr.c                        0x00000000   Number         0  usb_istr.o ABSOLUTE
    ../src/usb_prop.c                        0x00000000   Number         0  usb_prop.o ABSOLUTE
    ../src/usb_pwr.c                         0x00000000   Number         0  usb_pwr.o ABSOLUTE
    ..\..\..\Libraries\STM32F10x_StdPeriph_Driver\src\misc.c 0x00000000   Number         0  misc.o ABSOLUTE
    ..\..\..\Libraries\STM32F10x_StdPeriph_Driver\src\stm32f10x_adc.c 0x00000000   Number         0  stm32f10x_adc.o ABSOLUTE
    ..\..\..\Libraries\STM32F10x_StdPeriph_Driver\src\stm32f10x_dma.c 0x00000000   Number         0  stm32f10x_dma.o ABSOLUTE
    ..\..\..\Libraries\STM32F10x_StdPeriph_Driver\src\stm32f10x_exti.c 0x00000000   Number         0  stm32f10x_exti.o ABSOLUTE
    ..\..\..\Libraries\STM32F10x_StdPeriph_Driver\src\stm32f10x_flash.c 0x00000000   Number         0  stm32f10x_flash.o ABSOLUTE
    ..\..\..\Libraries\STM32F10x_StdPeriph_Driver\src\stm32f10x_gpio.c 0x00000000   Number         0  stm32f10x_gpio.o ABSOLUTE
    ..\..\..\Libraries\STM32F10x_StdPeriph_Driver\src\stm32f10x_i2c.c 0x00000000   Number         0  stm32f10x_i2c.o ABSOLUTE
    ..\..\..\Libraries\STM32F10x_StdPeriph_Driver\src\stm32f10x_pwr.c 0x00000000   Number         0  stm32f10x_pwr.o ABSOLUTE
    ..\..\..\Libraries\STM32F10x_StdPeriph_Driver\src\stm32f10x_rcc.c 0x00000000   Number         0  stm32f10x_rcc.o ABSOLUTE
    ..\..\..\Libraries\STM32F10x_StdPeriph_Driver\src\stm32f10x_sdio.c 0x00000000   Number         0  stm32f10x_sdio.o ABSOLUTE
    ..\..\..\Libraries\STM32F10x_StdPeriph_Driver\src\stm32f10x_spi.c 0x00000000   Number         0  stm32f10x_spi.o ABSOLUTE
    ..\..\..\Libraries\STM32F10x_StdPeriph_Driver\src\stm32f10x_usart.c 0x00000000   Number         0  stm32f10x_usart.o ABSOLUTE
    ..\..\..\Libraries\STM32_USB-FS-Device_Driver\src\usb_core.c 0x00000000   Number         0  usb_core.o ABSOLUTE
    ..\..\..\Libraries\STM32_USB-FS-Device_Driver\src\usb_init.c 0x00000000   Number         0  usb_init.o ABSOLUTE
    ..\..\..\Libraries\STM32_USB-FS-Device_Driver\src\usb_int.c 0x00000000   Number         0  usb_int.o ABSOLUTE
    ..\..\..\Libraries\STM32_USB-FS-Device_Driver\src\usb_mem.c 0x00000000   Number         0  usb_mem.o ABSOLUTE
    ..\..\..\Libraries\STM32_USB-FS-Device_Driver\src\usb_regs.c 0x00000000   Number         0  usb_regs.o ABSOLUTE
    ..\..\..\Libraries\STM32_USB-FS-Device_Driver\src\usb_sil.c 0x00000000   Number         0  usb_sil.o ABSOLUTE
    ..\..\..\Utilities\STM32_EVAL\STM3210B_EVAL\stm3210b_eval.c 0x00000000   Number         0  stm3210b_eval.o ABSOLUTE
    ..\\..\\..\\Libraries\\STM32F10x_StdPeriph_Driver\\src\\stm32f10x_sdio.c 0x00000000   Number         0  stm32f10x_sdio.o ABSOLUTE
    ..\\..\\..\\Libraries\\STM32F10x_StdPeriph_Driver\\src\\stm32f10x_spi.c 0x00000000   Number         0  stm32f10x_spi.o ABSOLUTE
    ..\\nrf24l01\\bsp_spi_nrf.c              0x00000000   Number         0  bsp_spi_nrf.o ABSOLUTE
    ..\nrf24l01\bsp_spi_nrf.c                0x00000000   Number         0  bsp_spi_nrf.o ABSOLUTE
    ..\nrf24l01\nrf_debug_printf.c           0x00000000   Number         0  nrf_debug_printf.o ABSOLUTE
    ..\src\hw_config.c                       0x00000000   Number         0  hw_config.o ABSOLUTE
    ..\src\main.c                            0x00000000   Number         0  main.o ABSOLUTE
    ..\src\stm32_it.c                        0x00000000   Number         0  stm32_it.o ABSOLUTE
    ..\src\system_stm32f10x.c                0x00000000   Number         0  system_stm32f10x.o ABSOLUTE
    ..\src\usb_desc.c                        0x00000000   Number         0  usb_desc.o ABSOLUTE
    ..\src\usb_endp.c                        0x00000000   Number         0  usb_endp.o ABSOLUTE
    ..\src\usb_istr.c                        0x00000000   Number         0  usb_istr.o ABSOLUTE
    ..\src\usb_prop.c                        0x00000000   Number         0  usb_prop.o ABSOLUTE
    ..\src\usb_pwr.c                         0x00000000   Number         0  usb_pwr.o ABSOLUTE
    dc.s                                     0x00000000   Number         0  dc.o ABSOLUTE
    handlers.s                               0x00000000   Number         0  handlers.o ABSOLUTE
    init.s                                   0x00000000   Number         0  init.o ABSOLUTE
    startup_stm32f10x_md.s                   0x00000000   Number         0  startup_stm32f10x_md.o ABSOLUTE
    RESET                                    0x08000000   Section      236  startup_stm32f10x_md.o(RESET)
    .ARM.Collect$$$$00000000                 0x080000ec   Section        0  entry.o(.ARM.Collect$$$$00000000)
    .ARM.Collect$$$$00000001                 0x080000ec   Section        4  entry2.o(.ARM.Collect$$$$00000001)
    .ARM.Collect$$$$00000004                 0x080000f0   Section        4  entry5.o(.ARM.Collect$$$$00000004)
    .ARM.Collect$$$$00000008                 0x080000f4   Section        0  entry7b.o(.ARM.Collect$$$$00000008)
    .ARM.Collect$$$$0000000A                 0x080000f4   Section        0  entry8b.o(.ARM.Collect$$$$0000000A)
    .ARM.Collect$$$$0000000B                 0x080000f4   Section        8  entry9a.o(.ARM.Collect$$$$0000000B)
    .ARM.Collect$$$$0000000D                 0x080000fc   Section        0  entry10a.o(.ARM.Collect$$$$0000000D)
    .ARM.Collect$$$$0000000F                 0x080000fc   Section        0  entry11a.o(.ARM.Collect$$$$0000000F)
    .ARM.Collect$$$$00002712                 0x080000fc   Section        4  entry2.o(.ARM.Collect$$$$00002712)
    __lit__00000000                          0x080000fc   Data           4  entry2.o(.ARM.Collect$$$$00002712)
    .text                                    0x08000100   Section       36  startup_stm32f10x_md.o(.text)
    .text                                    0x08000124   Section       36  init.o(.text)
    .text                                    0x08000148   Section        0  __dczerorl2.o(.text)
    i.ADC_Cmd                                0x0800019e   Section        0  stm32f10x_adc.o(i.ADC_Cmd)
    i.ADC_Configuration                      0x080001b4   Section        0  hw_config.o(i.ADC_Configuration)
    i.ADC_DMACmd                             0x08000280   Section        0  stm32f10x_adc.o(i.ADC_DMACmd)
    i.ADC_GetCalibrationStatus               0x08000294   Section        0  stm32f10x_adc.o(i.ADC_GetCalibrationStatus)
    i.ADC_GetResetCalibrationStatus          0x080002a2   Section        0  stm32f10x_adc.o(i.ADC_GetResetCalibrationStatus)
    i.ADC_Init                               0x080002b0   Section        0  stm32f10x_adc.o(i.ADC_Init)
    i.ADC_RegularChannelConfig               0x080002f8   Section        0  stm32f10x_adc.o(i.ADC_RegularChannelConfig)
    i.ADC_ResetCalibration                   0x0800036c   Section        0  stm32f10x_adc.o(i.ADC_ResetCalibration)
    i.ADC_SoftwareStartConvCmd               0x08000376   Section        0  stm32f10x_adc.o(i.ADC_SoftwareStartConvCmd)
    i.ADC_StartCalibration                   0x0800038a   Section        0  stm32f10x_adc.o(i.ADC_StartCalibration)
    i.BusFault_Handler                       0x08000394   Section        0  stm32_it.o(i.BusFault_Handler)
    i.ByteSwap                               0x08000396   Section        0  usb_regs.o(i.ByteSwap)
    i.CTR_LP                                 0x080003a0   Section        0  usb_int.o(i.CTR_LP)
    i.ClearDTOG_RX                           0x080004fc   Section        0  usb_regs.o(i.ClearDTOG_RX)
    i.ClearDTOG_TX                           0x08000524   Section        0  usb_regs.o(i.ClearDTOG_TX)
    i.Clear_Status_Out                       0x0800054c   Section        0  usb_regs.o(i.Clear_Status_Out)
    i.CustomHID_Data_Setup                   0x0800056c   Section        0  usb_prop.o(i.CustomHID_Data_Setup)
    i.CustomHID_GetConfigDescriptor          0x080005e4   Section        0  usb_prop.o(i.CustomHID_GetConfigDescriptor)
    i.CustomHID_GetDeviceDescriptor          0x080005f0   Section        0  usb_prop.o(i.CustomHID_GetDeviceDescriptor)
    i.CustomHID_GetHIDDescriptor             0x080005fc   Section        0  usb_prop.o(i.CustomHID_GetHIDDescriptor)
    i.CustomHID_GetProtocolValue             0x08000608   Section        0  usb_prop.o(i.CustomHID_GetProtocolValue)
    i.CustomHID_GetReportDescriptor          0x08000624   Section        0  usb_prop.o(i.CustomHID_GetReportDescriptor)
    i.CustomHID_GetStringDescriptor          0x08000630   Section        0  usb_prop.o(i.CustomHID_GetStringDescriptor)
    i.CustomHID_Get_Interface_Setting        0x08000650   Section        0  usb_prop.o(i.CustomHID_Get_Interface_Setting)
    i.CustomHID_NoData_Setup                 0x0800065c   Section        0  usb_prop.o(i.CustomHID_NoData_Setup)
    i.CustomHID_Reset                        0x0800067c   Section        0  usb_prop.o(i.CustomHID_Reset)
    i.CustomHID_SetConfiguration             0x0800072c   Section        0  usb_prop.o(i.CustomHID_SetConfiguration)
    i.CustomHID_SetDeviceAddress             0x08000754   Section        0  usb_prop.o(i.CustomHID_SetDeviceAddress)
    i.CustomHID_SetProtocol                  0x08000760   Section        0  usb_prop.o(i.CustomHID_SetProtocol)
    i.CustomHID_SetReport_Feature            0x08000778   Section        0  usb_prop.o(i.CustomHID_SetReport_Feature)
    i.CustomHID_Status_In                    0x08000794   Section        0  usb_prop.o(i.CustomHID_Status_In)
    i.CustomHID_Status_Out                   0x080007f8   Section        0  usb_prop.o(i.CustomHID_Status_Out)
    i.CustomHID_init                         0x080007fc   Section        0  usb_prop.o(i.CustomHID_init)
    i.DMA1_Channel1_IRQHandler               0x08000820   Section        0  stm32_it.o(i.DMA1_Channel1_IRQHandler)
    i.DMA_ClearFlag                          0x08000880   Section        0  stm32f10x_dma.o(i.DMA_ClearFlag)
    i.DMA_Cmd                                0x08000898   Section        0  stm32f10x_dma.o(i.DMA_Cmd)
    i.DMA_DeInit                             0x080008b0   Section        0  stm32f10x_dma.o(i.DMA_DeInit)
    i.DMA_ITConfig                           0x08000994   Section        0  stm32f10x_dma.o(i.DMA_ITConfig)
    i.DMA_Init                               0x080009a4   Section        0  stm32f10x_dma.o(i.DMA_Init)
    i.DataStageIn                            0x080009e0   Section        0  usb_core.o(i.DataStageIn)
    DataStageIn                              0x080009e1   Thumb Code   156  usb_core.o(i.DataStageIn)
    i.DataStageOut                           0x08000a94   Section        0  usb_core.o(i.DataStageOut)
    DataStageOut                             0x08000a95   Thumb Code   174  usb_core.o(i.DataStageOut)
    i.Data_Setup0                            0x08000b5c   Section        0  usb_core.o(i.Data_Setup0)
    Data_Setup0                              0x08000b5d   Thumb Code   376  usb_core.o(i.Data_Setup0)
    i.DebugMon_Handler                       0x08000cf8   Section        0  stm32_it.o(i.DebugMon_Handler)
    i.Delay                                  0x08000cfc   Section        0  main.o(i.Delay)
    i.EP1_IN_Callback                        0x08000d18   Section        0  usb_endp.o(i.EP1_IN_Callback)
    i.EP1_OUT_Callback                       0x08000d24   Section        0  usb_endp.o(i.EP1_OUT_Callback)
    i.EXTI15_10_IRQHandler                   0x08000d98   Section        0  stm32_it.o(i.EXTI15_10_IRQHandler)
    i.EXTI9_5_IRQHandler                     0x08000dfc   Section        0  stm32_it.o(i.EXTI9_5_IRQHandler)
    i.EXTI_ClearITPendingBit                 0x08000e60   Section        0  stm32f10x_exti.o(i.EXTI_ClearITPendingBit)
    i.EXTI_Configuration                     0x08000e6c   Section        0  hw_config.o(i.EXTI_Configuration)
    i.EXTI_GetITStatus                       0x08000ed0   Section        0  stm32f10x_exti.o(i.EXTI_GetITStatus)
    i.EXTI_Init                              0x08000ef0   Section        0  stm32f10x_exti.o(i.EXTI_Init)
    i.GPIO_EXTILineConfig                    0x08000f60   Section        0  stm32f10x_gpio.o(i.GPIO_EXTILineConfig)
    i.GPIO_Init                              0x08000f88   Section        0  stm32f10x_gpio.o(i.GPIO_Init)
    i.GPIO_ReadInputDataBit                  0x0800102a   Section        0  stm32f10x_gpio.o(i.GPIO_ReadInputDataBit)
    i.GPIO_ResetBits                         0x08001038   Section        0  stm32f10x_gpio.o(i.GPIO_ResetBits)
    i.GPIO_SetBits                           0x0800103c   Section        0  stm32f10x_gpio.o(i.GPIO_SetBits)
    i.GetEPRxAddr                            0x08001040   Section        0  usb_regs.o(i.GetEPRxAddr)
    i.GetEPRxCount                           0x08001060   Section        0  usb_regs.o(i.GetEPRxCount)
    i.GetEPTxAddr                            0x08001080   Section        0  usb_regs.o(i.GetEPTxAddr)
    i.Get_SerialNum                          0x0800109c   Section        0  hw_config.o(i.Get_SerialNum)
    i.HardFault_Handler                      0x080010d0   Section        0  stm32_it.o(i.HardFault_Handler)
    i.In0_Process                            0x080010d4   Section        0  usb_core.o(i.In0_Process)
    i.IntToUnicode                           0x08001130   Section        0  hw_config.o(i.IntToUnicode)
    IntToUnicode                             0x08001131   Thumb Code    56  hw_config.o(i.IntToUnicode)
    i.MemManage_Handler                      0x08001168   Section        0  stm32_it.o(i.MemManage_Handler)
    i.NMI_Handler                            0x0800116a   Section        0  stm32_it.o(i.NMI_Handler)
    i.NOP_Process                            0x0800116c   Section        0  usb_core.o(i.NOP_Process)
    i.NRF_Check                              0x08001170   Section        0  bsp_spi_nrf.o(i.NRF_Check)
    i.NRF_RX_Mode                            0x080011b8   Section        0  bsp_spi_nrf.o(i.NRF_RX_Mode)
    i.NRF_Rx_Dat                             0x08001214   Section        0  bsp_spi_nrf.o(i.NRF_Rx_Dat)
    i.NVIC_Init                              0x08001268   Section        0  misc.o(i.NVIC_Init)
    i.NVIC_PriorityGroupConfig               0x080012cc   Section        0  misc.o(i.NVIC_PriorityGroupConfig)
    i.NoData_Setup0                          0x080012e0   Section        0  usb_core.o(i.NoData_Setup0)
    NoData_Setup0                            0x080012e1   Thumb Code   196  usb_core.o(i.NoData_Setup0)
    i.Out0_Process                           0x080013bc   Section        0  usb_core.o(i.Out0_Process)
    i.PMAToUserBufferCopy                    0x08001404   Section        0  usb_mem.o(i.PMAToUserBufferCopy)
    i.PendSV_Handler                         0x08001424   Section        0  stm32_it.o(i.PendSV_Handler)
    i.Post0_Process                          0x08001428   Section        0  usb_core.o(i.Post0_Process)
    i.PowerOn                                0x0800146c   Section        0  usb_pwr.o(i.PowerOn)
    i.RCC_AHBPeriphClockCmd                  0x080014a0   Section        0  stm32f10x_rcc.o(i.RCC_AHBPeriphClockCmd)
    i.RCC_APB1PeriphClockCmd                 0x080014b8   Section        0  stm32f10x_rcc.o(i.RCC_APB1PeriphClockCmd)
    i.RCC_APB2PeriphClockCmd                 0x080014d0   Section        0  stm32f10x_rcc.o(i.RCC_APB2PeriphClockCmd)
    i.RCC_USBCLKConfig                       0x080014e8   Section        0  stm32f10x_rcc.o(i.RCC_USBCLKConfig)
    i.Resume                                 0x080014f4   Section        0  usb_pwr.o(i.Resume)
    i.Resume_Init                            0x08001584   Section        0  usb_pwr.o(i.Resume_Init)
    i.SPI_Cmd                                0x0800159c   Section        0  stm32f10x_spi.o(i.SPI_Cmd)
    i.SPI_I2S_GetFlagStatus                  0x080015b0   Section        0  stm32f10x_spi.o(i.SPI_I2S_GetFlagStatus)
    i.SPI_I2S_ReceiveData                    0x080015be   Section        0  stm32f10x_spi.o(i.SPI_I2S_ReceiveData)
    i.SPI_I2S_SendData                       0x080015c2   Section        0  stm32f10x_spi.o(i.SPI_I2S_SendData)
    i.SPI_Init                               0x080015c6   Section        0  stm32f10x_spi.o(i.SPI_Init)
    i.SPI_NRF_Init                           0x08001600   Section        0  bsp_spi_nrf.o(i.SPI_NRF_Init)
    i.SPI_NRF_RW                             0x080016bc   Section        0  bsp_spi_nrf.o(i.SPI_NRF_RW)
    i.SPI_NRF_ReadBuf                        0x080016f0   Section        0  bsp_spi_nrf.o(i.SPI_NRF_ReadBuf)
    i.SPI_NRF_ReadReg                        0x0800173c   Section        0  bsp_spi_nrf.o(i.SPI_NRF_ReadReg)
    i.SPI_NRF_WriteBuf                       0x08001770   Section        0  bsp_spi_nrf.o(i.SPI_NRF_WriteBuf)
    i.SPI_NRF_WriteReg                       0x080017bc   Section        0  bsp_spi_nrf.o(i.SPI_NRF_WriteReg)
    i.STM_EVAL_LEDInit                       0x080017f4   Section        0  stm3210b_eval.o(i.STM_EVAL_LEDInit)
    i.STM_EVAL_LEDOff                        0x08001834   Section        0  stm3210b_eval.o(i.STM_EVAL_LEDOff)
    i.STM_EVAL_LEDOn                         0x0800184c   Section        0  stm3210b_eval.o(i.STM_EVAL_LEDOn)
    i.STM_EVAL_PBGetState                    0x08001864   Section        0  stm3210b_eval.o(i.STM_EVAL_PBGetState)
    i.STM_EVAL_PBInit                        0x0800187c   Section        0  stm3210b_eval.o(i.STM_EVAL_PBInit)
    i.SVC_Handler                            0x08001918   Section        0  stm32_it.o(i.SVC_Handler)
    i.SetBTABLE                              0x0800191c   Section        0  usb_regs.o(i.SetBTABLE)
    i.SetDeviceAddress                       0x0800192c   Section        0  usb_core.o(i.SetDeviceAddress)
    i.SetEPRxAddr                            0x08001974   Section        0  usb_regs.o(i.SetEPRxAddr)
    i.SetEPRxCount                           0x08001994   Section        0  usb_regs.o(i.SetEPRxCount)
    i.SetEPRxStatus                          0x080019d4   Section        0  usb_regs.o(i.SetEPRxStatus)
    i.SetEPRxValid                           0x08001a04   Section        0  usb_regs.o(i.SetEPRxValid)
    i.SetEPTxAddr                            0x08001a28   Section        0  usb_regs.o(i.SetEPTxAddr)
    i.SetEPTxCount                           0x08001a48   Section        0  usb_regs.o(i.SetEPTxCount)
    i.SetEPTxStatus                          0x08001a64   Section        0  usb_regs.o(i.SetEPTxStatus)
    i.SetEPTxValid                           0x08001a94   Section        0  usb_regs.o(i.SetEPTxValid)
    i.SetEPType                              0x08001ab8   Section        0  usb_regs.o(i.SetEPType)
    i.SetISTR                                0x08001ad4   Section        0  usb_regs.o(i.SetISTR)
    i.SetSysClockTo72                        0x08001ae0   Section        0  system_stm32f10x.o(i.SetSysClockTo72)
    SetSysClockTo72                          0x08001ae1   Thumb Code   160  system_stm32f10x.o(i.SetSysClockTo72)
    i.Set_System                             0x08001b88   Section        0  hw_config.o(i.Set_System)
    i.Set_USBClock                           0x08001c0c   Section        0  hw_config.o(i.Set_USBClock)
    i.Setup0_Process                         0x08001c20   Section        0  usb_core.o(i.Setup0_Process)
    i.Standard_ClearFeature                  0x08001c88   Section        0  usb_core.o(i.Standard_ClearFeature)
    i.Standard_GetConfiguration              0x08001d84   Section        0  usb_core.o(i.Standard_GetConfiguration)
    i.Standard_GetDescriptorData             0x08001dac   Section        0  usb_core.o(i.Standard_GetDescriptorData)
    i.Standard_GetInterface                  0x08001dc8   Section        0  usb_core.o(i.Standard_GetInterface)
    i.Standard_GetStatus                     0x08001df0   Section        0  usb_core.o(i.Standard_GetStatus)
    i.Standard_SetConfiguration              0x08001e84   Section        0  usb_core.o(i.Standard_SetConfiguration)
    i.Standard_SetDeviceFeature              0x08001ebc   Section        0  usb_core.o(i.Standard_SetDeviceFeature)
    i.Standard_SetEndPointFeature            0x08001ee0   Section        0  usb_core.o(i.Standard_SetEndPointFeature)
    i.Standard_SetInterface                  0x08001f68   Section        0  usb_core.o(i.Standard_SetInterface)
    i.Suspend                                0x08001fb0   Section        0  usb_pwr.o(i.Suspend)
    i.SysTick_Handler                        0x0800202c   Section        0  stm32_it.o(i.SysTick_Handler)
    i.SystemInit                             0x0800203c   Section        0  system_stm32f10x.o(i.SystemInit)
    i.USBWakeUp_IRQHandler                   0x0800208c   Section        0  stm32_it.o(i.USBWakeUp_IRQHandler)
    i.USB_Cable_Config                       0x08002094   Section        0  hw_config.o(i.USB_Cable_Config)
    i.USB_Init                               0x080020ac   Section        0  usb_init.o(i.USB_Init)
    i.USB_Interrupts_Config                  0x080020d4   Section        0  hw_config.o(i.USB_Interrupts_Config)
    i.USB_Istr                               0x08002110   Section        0  usb_istr.o(i.USB_Istr)
    i.USB_LP_CAN1_RX0_IRQHandler             0x08002258   Section        0  stm32_it.o(i.USB_LP_CAN1_RX0_IRQHandler)
    i.USB_SIL_Init                           0x0800225c   Section        0  usb_sil.o(i.USB_SIL_Init)
    i.USB_SIL_Read                           0x0800227c   Section        0  usb_sil.o(i.USB_SIL_Read)
    i.USB_SIL_Write                          0x080022a0   Section        0  usb_sil.o(i.USB_SIL_Write)
    i.UsageFault_Handler                     0x080022c6   Section        0  stm32_it.o(i.UsageFault_Handler)
    i.UserToPMABufferCopy                    0x080022c8   Section        0  usb_mem.o(i.UserToPMABufferCopy)
    i.__scatterload_copy                     0x080022f4   Section       14  handlers.o(i.__scatterload_copy)
    i.__scatterload_null                     0x08002302   Section        2  handlers.o(i.__scatterload_null)
    i.__scatterload_zeroinit                 0x08002304   Section       14  handlers.o(i.__scatterload_zeroinit)
    i.main                                   0x08002314   Section        0  main.o(i.main)
    .constdata                               0x08002398   Section      168  stm3210b_eval.o(.constdata)
    .constdata                               0x08002440   Section       18  usb_desc.o(.constdata)
    .constdata                               0x08002452   Section       41  usb_desc.o(.constdata)
    .constdata                               0x0800247b   Section       44  usb_desc.o(.constdata)
    .constdata                               0x080024a7   Section        4  usb_desc.o(.constdata)
    .constdata                               0x080024ab   Section       38  usb_desc.o(.constdata)
    .constdata                               0x080024d1   Section       32  usb_desc.o(.constdata)
    .data                                    0x20000000   Section        4  usb_int.o(.data)
    .data                                    0x20000004   Section        8  usb_core.o(.data)
    .data                                    0x2000000c   Section        1  usb_init.o(.data)
    .data                                    0x20000010   Section       12  usb_init.o(.data)
    .data                                    0x2000001c   Section        2  usb_init.o(.data)
    .data                                    0x20000020   Section       72  stm3210b_eval.o(.data)
    .data                                    0x20000068   Section        2  usb_endp.o(.data)
    .data                                    0x2000006a   Section       26  usb_desc.o(.data)
    .data                                    0x20000084   Section        2  stm32_it.o(.data)
    .data                                    0x20000088   Section       12  usb_istr.o(.data)
    .data                                    0x20000094   Section       28  usb_istr.o(.data)
    .data                                    0x200000b0   Section       28  usb_istr.o(.data)
    .data                                    0x200000cc   Section        4  usb_pwr.o(.data)
    .data                                    0x200000d0   Section        1  usb_pwr.o(.data)
    .data                                    0x200000d4   Section        8  usb_pwr.o(.data)
    .data                                    0x200000dc   Section      120  usb_prop.o(.data)
    .data                                    0x20000154   Section        2  usb_prop.o(.data)
    .data                                    0x20000158   Section       36  usb_prop.o(.data)
    .data                                    0x2000017c   Section        4  hw_config.o(.data)
    .data                                    0x20000180   Section        4  hw_config.o(.data)
    .data                                    0x20000184   Section        8  main.o(.data)
    .data                                    0x2000018c   Section       10  bsp_spi_nrf.o(.data)
    .bss                                     0x20000198   Section       28  usb_init.o(.bss)
    .bss                                     0x200001b4   Section       32  usb_pwr.o(.bss)
    STACK                                    0x200001d8   Section     1024  startup_stm32f10x_md.o(STACK)

    Global Symbols

    Symbol Name                              Value     Ov Type        Size  Object(Section)

    BuildAttributes$$THM_ISAv4$P$D$K$B$S$PE$A:L22UL41UL21$X:L11$S22US41US21$IEEE1$IW$USESV6$~STKCKD$USESV7$~SHL$OSPACE$EBA8$MICROLIB$REQ8$PRES8$EABIv2 0x00000000   Number         0  anon$$obj.o ABSOLUTE
    __ARM_use_no_argv                        0x00000000   Number         0  main.o ABSOLUTE
    __cpp_initialize__aeabi_                  - Undefined Weak Reference
    __cxa_finalize                            - Undefined Weak Reference
    _clock_init                               - Undefined Weak Reference
    _microlib_exit                            - Undefined Weak Reference
    __Vectors_Size                           0x000000ec   Number         0  startup_stm32f10x_md.o ABSOLUTE
    __Vectors                                0x08000000   Data           4  startup_stm32f10x_md.o(RESET)
    __Vectors_End                            0x080000ec   Data           0  startup_stm32f10x_md.o(RESET)
    __main                                   0x080000ed   Thumb Code     0  entry.o(.ARM.Collect$$$$00000000)
    _main_stk                                0x080000ed   Thumb Code     0  entry2.o(.ARM.Collect$$$$00000001)
    _main_scatterload                        0x080000f1   Thumb Code     0  entry5.o(.ARM.Collect$$$$00000004)
    __main_after_scatterload                 0x080000f5   Thumb Code     0  entry5.o(.ARM.Collect$$$$00000004)
    _main_clock                              0x080000f5   Thumb Code     0  entry7b.o(.ARM.Collect$$$$00000008)
    _main_cpp_init                           0x080000f5   Thumb Code     0  entry8b.o(.ARM.Collect$$$$0000000A)
    _main_init                               0x080000f5   Thumb Code     0  entry9a.o(.ARM.Collect$$$$0000000B)
    __rt_final_cpp                           0x080000fd   Thumb Code     0  entry10a.o(.ARM.Collect$$$$0000000D)
    __rt_final_exit                          0x080000fd   Thumb Code     0  entry11a.o(.ARM.Collect$$$$0000000F)
    Reset_Handler                            0x08000101   Thumb Code     8  startup_stm32f10x_md.o(.text)
    ADC1_2_IRQHandler                        0x0800011b   Thumb Code     0  startup_stm32f10x_md.o(.text)
    CAN1_RX1_IRQHandler                      0x0800011b   Thumb Code     0  startup_stm32f10x_md.o(.text)
    CAN1_SCE_IRQHandler                      0x0800011b   Thumb Code     0  startup_stm32f10x_md.o(.text)
    DMA1_Channel2_IRQHandler                 0x0800011b   Thumb Code     0  startup_stm32f10x_md.o(.text)
    DMA1_Channel3_IRQHandler                 0x0800011b   Thumb Code     0  startup_stm32f10x_md.o(.text)
    DMA1_Channel4_IRQHandler                 0x0800011b   Thumb Code     0  startup_stm32f10x_md.o(.text)
    DMA1_Channel5_IRQHandler                 0x0800011b   Thumb Code     0  startup_stm32f10x_md.o(.text)
    DMA1_Channel6_IRQHandler                 0x0800011b   Thumb Code     0  startup_stm32f10x_md.o(.text)
    DMA1_Channel7_IRQHandler                 0x0800011b   Thumb Code     0  startup_stm32f10x_md.o(.text)
    EXTI0_IRQHandler                         0x0800011b   Thumb Code     0  startup_stm32f10x_md.o(.text)
    EXTI1_IRQHandler                         0x0800011b   Thumb Code     0  startup_stm32f10x_md.o(.text)
    EXTI2_IRQHandler                         0x0800011b   Thumb Code     0  startup_stm32f10x_md.o(.text)
    EXTI3_IRQHandler                         0x0800011b   Thumb Code     0  startup_stm32f10x_md.o(.text)
    EXTI4_IRQHandler                         0x0800011b   Thumb Code     0  startup_stm32f10x_md.o(.text)
    FLASH_IRQHandler                         0x0800011b   Thumb Code     0  startup_stm32f10x_md.o(.text)
    I2C1_ER_IRQHandler                       0x0800011b   Thumb Code     0  startup_stm32f10x_md.o(.text)
    I2C1_EV_IRQHandler                       0x0800011b   Thumb Code     0  startup_stm32f10x_md.o(.text)
    I2C2_ER_IRQHandler                       0x0800011b   Thumb Code     0  startup_stm32f10x_md.o(.text)
    I2C2_EV_IRQHandler                       0x0800011b   Thumb Code     0  startup_stm32f10x_md.o(.text)
    PVD_IRQHandler                           0x0800011b   Thumb Code     0  startup_stm32f10x_md.o(.text)
    RCC_IRQHandler                           0x0800011b   Thumb Code     0  startup_stm32f10x_md.o(.text)
    RTCAlarm_IRQHandler                      0x0800011b   Thumb Code     0  startup_stm32f10x_md.o(.text)
    RTC_IRQHandler                           0x0800011b   Thumb Code     0  startup_stm32f10x_md.o(.text)
    SPI1_IRQHandler                          0x0800011b   Thumb Code     0  startup_stm32f10x_md.o(.text)
    SPI2_IRQHandler                          0x0800011b   Thumb Code     0  startup_stm32f10x_md.o(.text)
    TAMPER_IRQHandler                        0x0800011b   Thumb Code     0  startup_stm32f10x_md.o(.text)
    TIM1_BRK_IRQHandler                      0x0800011b   Thumb Code     0  startup_stm32f10x_md.o(.text)
    TIM1_CC_IRQHandler                       0x0800011b   Thumb Code     0  startup_stm32f10x_md.o(.text)
    TIM1_TRG_COM_IRQHandler                  0x0800011b   Thumb Code     0  startup_stm32f10x_md.o(.text)
    TIM1_UP_IRQHandler                       0x0800011b   Thumb Code     0  startup_stm32f10x_md.o(.text)
    TIM2_IRQHandler                          0x0800011b   Thumb Code     0  startup_stm32f10x_md.o(.text)
    TIM3_IRQHandler                          0x0800011b   Thumb Code     0  startup_stm32f10x_md.o(.text)
    TIM4_IRQHandler                          0x0800011b   Thumb Code     0  startup_stm32f10x_md.o(.text)
    USART1_IRQHandler                        0x0800011b   Thumb Code     0  startup_stm32f10x_md.o(.text)
    USART2_IRQHandler                        0x0800011b   Thumb Code     0  startup_stm32f10x_md.o(.text)
    USART3_IRQHandler                        0x0800011b   Thumb Code     0  startup_stm32f10x_md.o(.text)
    USB_HP_CAN1_TX_IRQHandler                0x0800011b   Thumb Code     0  startup_stm32f10x_md.o(.text)
    WWDG_IRQHandler                          0x0800011b   Thumb Code     0  startup_stm32f10x_md.o(.text)
    __scatterload                            0x08000125   Thumb Code    28  init.o(.text)
    __scatterload_rt2                        0x08000125   Thumb Code     0  init.o(.text)
    __decompress                             0x08000149   Thumb Code     0  __dczerorl2.o(.text)
    __decompress1                            0x08000149   Thumb Code    86  __dczerorl2.o(.text)
    ADC_Cmd                                  0x0800019f   Thumb Code    20  stm32f10x_adc.o(i.ADC_Cmd)
    ADC_Configuration                        0x080001b5   Thumb Code   190  hw_config.o(i.ADC_Configuration)
    ADC_DMACmd                               0x08000281   Thumb Code    20  stm32f10x_adc.o(i.ADC_DMACmd)
    ADC_GetCalibrationStatus                 0x08000295   Thumb Code    14  stm32f10x_adc.o(i.ADC_GetCalibrationStatus)
    ADC_GetResetCalibrationStatus            0x080002a3   Thumb Code    14  stm32f10x_adc.o(i.ADC_GetResetCalibrationStatus)
    ADC_Init                                 0x080002b1   Thumb Code    62  stm32f10x_adc.o(i.ADC_Init)
    ADC_RegularChannelConfig                 0x080002f9   Thumb Code   116  stm32f10x_adc.o(i.ADC_RegularChannelConfig)
    ADC_ResetCalibration                     0x0800036d   Thumb Code    10  stm32f10x_adc.o(i.ADC_ResetCalibration)
    ADC_SoftwareStartConvCmd                 0x08000377   Thumb Code    20  stm32f10x_adc.o(i.ADC_SoftwareStartConvCmd)
    ADC_StartCalibration                     0x0800038b   Thumb Code    10  stm32f10x_adc.o(i.ADC_StartCalibration)
    BusFault_Handler                         0x08000395   Thumb Code     2  stm32_it.o(i.BusFault_Handler)
    ByteSwap                                 0x08000397   Thumb Code    10  usb_regs.o(i.ByteSwap)
    CTR_LP                                   0x080003a1   Thumb Code   318  usb_int.o(i.CTR_LP)
    ClearDTOG_RX                             0x080004fd   Thumb Code    36  usb_regs.o(i.ClearDTOG_RX)
    ClearDTOG_TX                             0x08000525   Thumb Code    36  usb_regs.o(i.ClearDTOG_TX)
    Clear_Status_Out                         0x0800054d   Thumb Code    28  usb_regs.o(i.Clear_Status_Out)
    CustomHID_Data_Setup                     0x0800056d   Thumb Code    96  usb_prop.o(i.CustomHID_Data_Setup)
    CustomHID_GetConfigDescriptor            0x080005e5   Thumb Code     6  usb_prop.o(i.CustomHID_GetConfigDescriptor)
    CustomHID_GetDeviceDescriptor            0x080005f1   Thumb Code     6  usb_prop.o(i.CustomHID_GetDeviceDescriptor)
    CustomHID_GetHIDDescriptor               0x080005fd   Thumb Code     6  usb_prop.o(i.CustomHID_GetHIDDescriptor)
    CustomHID_GetProtocolValue               0x08000609   Thumb Code    18  usb_prop.o(i.CustomHID_GetProtocolValue)
    CustomHID_GetReportDescriptor            0x08000625   Thumb Code     6  usb_prop.o(i.CustomHID_GetReportDescriptor)
    CustomHID_GetStringDescriptor            0x08000631   Thumb Code    24  usb_prop.o(i.CustomHID_GetStringDescriptor)
    CustomHID_Get_Interface_Setting          0x08000651   Thumb Code    10  usb_prop.o(i.CustomHID_Get_Interface_Setting)
    CustomHID_NoData_Setup                   0x0800065d   Thumb Code    26  usb_prop.o(i.CustomHID_NoData_Setup)
    CustomHID_Reset                          0x0800067d   Thumb Code   160  usb_prop.o(i.CustomHID_Reset)
    CustomHID_SetConfiguration               0x0800072d   Thumb Code    26  usb_prop.o(i.CustomHID_SetConfiguration)
    CustomHID_SetDeviceAddress               0x08000755   Thumb Code     8  usb_prop.o(i.CustomHID_SetDeviceAddress)
    CustomHID_SetProtocol                    0x08000761   Thumb Code    14  usb_prop.o(i.CustomHID_SetProtocol)
    CustomHID_SetReport_Feature              0x08000779   Thumb Code    18  usb_prop.o(i.CustomHID_SetReport_Feature)
    CustomHID_Status_In                      0x08000795   Thumb Code    96  usb_prop.o(i.CustomHID_Status_In)
    CustomHID_Status_Out                     0x080007f9   Thumb Code     2  usb_prop.o(i.CustomHID_Status_Out)
    CustomHID_init                           0x080007fd   Thumb Code    28  usb_prop.o(i.CustomHID_init)
    DMA1_Channel1_IRQHandler                 0x08000821   Thumb Code    76  stm32_it.o(i.DMA1_Channel1_IRQHandler)
    DMA_ClearFlag                            0x08000881   Thumb Code    16  stm32f10x_dma.o(i.DMA_ClearFlag)
    DMA_Cmd                                  0x08000899   Thumb Code    22  stm32f10x_dma.o(i.DMA_Cmd)
    DMA_DeInit                               0x080008b1   Thumb Code   218  stm32f10x_dma.o(i.DMA_DeInit)
    DMA_ITConfig                             0x08000995   Thumb Code    16  stm32f10x_dma.o(i.DMA_ITConfig)
    DMA_Init                                 0x080009a5   Thumb Code    58  stm32f10x_dma.o(i.DMA_Init)
    DebugMon_Handler                         0x08000cf9   Thumb Code     2  stm32_it.o(i.DebugMon_Handler)
    Delay                                    0x08000cfd   Thumb Code    22  main.o(i.Delay)
    EP1_IN_Callback                          0x08000d19   Thumb Code     8  usb_endp.o(i.EP1_IN_Callback)
    EP1_OUT_Callback                         0x08000d25   Thumb Code   112  usb_endp.o(i.EP1_OUT_Callback)
    EXTI15_10_IRQHandler                     0x08000d99   Thumb Code    88  stm32_it.o(i.EXTI15_10_IRQHandler)
    EXTI9_5_IRQHandler                       0x08000dfd   Thumb Code    86  stm32_it.o(i.EXTI9_5_IRQHandler)
    EXTI_ClearITPendingBit                   0x08000e61   Thumb Code     6  stm32f10x_exti.o(i.EXTI_ClearITPendingBit)
    EXTI_Configuration                       0x08000e6d   Thumb Code    98  hw_config.o(i.EXTI_Configuration)
    EXTI_GetITStatus                         0x08000ed1   Thumb Code    28  stm32f10x_exti.o(i.EXTI_GetITStatus)
    EXTI_Init                                0x08000ef1   Thumb Code   108  stm32f10x_exti.o(i.EXTI_Init)
    GPIO_EXTILineConfig                      0x08000f61   Thumb Code    34  stm32f10x_gpio.o(i.GPIO_EXTILineConfig)
    GPIO_Init                                0x08000f89   Thumb Code   162  stm32f10x_gpio.o(i.GPIO_Init)
    GPIO_ReadInputDataBit                    0x0800102b   Thumb Code    14  stm32f10x_gpio.o(i.GPIO_ReadInputDataBit)
    GPIO_ResetBits                           0x08001039   Thumb Code     4  stm32f10x_gpio.o(i.GPIO_ResetBits)
    GPIO_SetBits                             0x0800103d   Thumb Code     4  stm32f10x_gpio.o(i.GPIO_SetBits)
    GetEPRxAddr                              0x08001041   Thumb Code    22  usb_regs.o(i.GetEPRxAddr)
    GetEPRxCount                             0x08001061   Thumb Code    24  usb_regs.o(i.GetEPRxCount)
    GetEPTxAddr                              0x08001081   Thumb Code    20  usb_regs.o(i.GetEPTxAddr)
    Get_SerialNum                            0x0800109d   Thumb Code    44  hw_config.o(i.Get_SerialNum)
    HardFault_Handler                        0x080010d1   Thumb Code     2  stm32_it.o(i.HardFault_Handler)
    In0_Process                              0x080010d5   Thumb Code    80  usb_core.o(i.In0_Process)
    MemManage_Handler                        0x08001169   Thumb Code     2  stm32_it.o(i.MemManage_Handler)
    NMI_Handler                              0x0800116b   Thumb Code     2  stm32_it.o(i.NMI_Handler)
    NOP_Process                              0x0800116d   Thumb Code     2  usb_core.o(i.NOP_Process)
    NRF_Check                                0x08001171   Thumb Code    64  bsp_spi_nrf.o(i.NRF_Check)
    NRF_RX_Mode                              0x080011b9   Thumb Code    82  bsp_spi_nrf.o(i.NRF_RX_Mode)
    NRF_Rx_Dat                               0x08001215   Thumb Code    80  bsp_spi_nrf.o(i.NRF_Rx_Dat)
    NVIC_Init                                0x08001269   Thumb Code    94  misc.o(i.NVIC_Init)
    NVIC_PriorityGroupConfig                 0x080012cd   Thumb Code    10  misc.o(i.NVIC_PriorityGroupConfig)
    Out0_Process                             0x080013bd   Thumb Code    62  usb_core.o(i.Out0_Process)
    PMAToUserBufferCopy                      0x08001405   Thumb Code    26  usb_mem.o(i.PMAToUserBufferCopy)
    PendSV_Handler                           0x08001425   Thumb Code     2  stm32_it.o(i.PendSV_Handler)
    Post0_Process                            0x08001429   Thumb Code    52  usb_core.o(i.Post0_Process)
    PowerOn                                  0x0800146d   Thumb Code    44  usb_pwr.o(i.PowerOn)
    RCC_AHBPeriphClockCmd                    0x080014a1   Thumb Code    18  stm32f10x_rcc.o(i.RCC_AHBPeriphClockCmd)
    RCC_APB1PeriphClockCmd                   0x080014b9   Thumb Code    18  stm32f10x_rcc.o(i.RCC_APB1PeriphClockCmd)
    RCC_APB2PeriphClockCmd                   0x080014d1   Thumb Code    18  stm32f10x_rcc.o(i.RCC_APB2PeriphClockCmd)
    RCC_USBCLKConfig                         0x080014e9   Thumb Code     8  stm32f10x_rcc.o(i.RCC_USBCLKConfig)
    Resume                                   0x080014f5   Thumb Code   136  usb_pwr.o(i.Resume)
    Resume_Init                              0x08001585   Thumb Code    20  usb_pwr.o(i.Resume_Init)
    SPI_Cmd                                  0x0800159d   Thumb Code    20  stm32f10x_spi.o(i.SPI_Cmd)
    SPI_I2S_GetFlagStatus                    0x080015b1   Thumb Code    14  stm32f10x_spi.o(i.SPI_I2S_GetFlagStatus)
    SPI_I2S_ReceiveData                      0x080015bf   Thumb Code     4  stm32f10x_spi.o(i.SPI_I2S_ReceiveData)
    SPI_I2S_SendData                         0x080015c3   Thumb Code     4  stm32f10x_spi.o(i.SPI_I2S_SendData)
    SPI_Init                                 0x080015c7   Thumb Code    56  stm32f10x_spi.o(i.SPI_Init)
    SPI_NRF_Init                             0x08001601   Thumb Code   174  bsp_spi_nrf.o(i.SPI_NRF_Init)
    SPI_NRF_RW                               0x080016bd   Thumb Code    48  bsp_spi_nrf.o(i.SPI_NRF_RW)
    SPI_NRF_ReadBuf                          0x080016f1   Thumb Code    72  bsp_spi_nrf.o(i.SPI_NRF_ReadBuf)
    SPI_NRF_ReadReg                          0x0800173d   Thumb Code    48  bsp_spi_nrf.o(i.SPI_NRF_ReadReg)
    SPI_NRF_WriteBuf                         0x08001771   Thumb Code    70  bsp_spi_nrf.o(i.SPI_NRF_WriteBuf)
    SPI_NRF_WriteReg                         0x080017bd   Thumb Code    50  bsp_spi_nrf.o(i.SPI_NRF_WriteReg)
    STM_EVAL_LEDInit                         0x080017f5   Thumb Code    54  stm3210b_eval.o(i.STM_EVAL_LEDInit)
    STM_EVAL_LEDOff                          0x08001835   Thumb Code    16  stm3210b_eval.o(i.STM_EVAL_LEDOff)
    STM_EVAL_LEDOn                           0x0800184d   Thumb Code    16  stm3210b_eval.o(i.STM_EVAL_LEDOn)
    STM_EVAL_PBGetState                      0x08001865   Thumb Code    16  stm3210b_eval.o(i.STM_EVAL_PBGetState)
    STM_EVAL_PBInit                          0x0800187d   Thumb Code   148  stm3210b_eval.o(i.STM_EVAL_PBInit)
    SVC_Handler                              0x08001919   Thumb Code     2  stm32_it.o(i.SVC_Handler)
    SetBTABLE                                0x0800191d   Thumb Code    10  usb_regs.o(i.SetBTABLE)
    SetDeviceAddress                         0x0800192d   Thumb Code    58  usb_core.o(i.SetDeviceAddress)
    SetEPRxAddr                              0x08001975   Thumb Code    24  usb_regs.o(i.SetEPRxAddr)
    SetEPRxCount                             0x08001995   Thumb Code    54  usb_regs.o(i.SetEPRxCount)
    SetEPRxStatus                            0x080019d5   Thumb Code    44  usb_regs.o(i.SetEPRxStatus)
    SetEPRxValid                             0x08001a05   Thumb Code    32  usb_regs.o(i.SetEPRxValid)
    SetEPTxAddr                              0x08001a29   Thumb Code    22  usb_regs.o(i.SetEPTxAddr)
    SetEPTxCount                             0x08001a49   Thumb Code    20  usb_regs.o(i.SetEPTxCount)
    SetEPTxStatus                            0x08001a65   Thumb Code    44  usb_regs.o(i.SetEPTxStatus)
    SetEPTxValid                             0x08001a95   Thumb Code    32  usb_regs.o(i.SetEPTxValid)
    SetEPType                                0x08001ab9   Thumb Code    24  usb_regs.o(i.SetEPType)
    SetISTR                                  0x08001ad5   Thumb Code     6  usb_regs.o(i.SetISTR)
    Set_System                               0x08001b89   Thumb Code   124  hw_config.o(i.Set_System)
    Set_USBClock                             0x08001c0d   Thumb Code    20  hw_config.o(i.Set_USBClock)
    Setup0_Process                           0x08001c21   Thumb Code    92  usb_core.o(i.Setup0_Process)
    Standard_ClearFeature                    0x08001c89   Thumb Code   232  usb_core.o(i.Standard_ClearFeature)
    Standard_GetConfiguration                0x08001d85   Thumb Code    30  usb_core.o(i.Standard_GetConfiguration)
    Standard_GetDescriptorData               0x08001dad   Thumb Code    24  usb_core.o(i.Standard_GetDescriptorData)
    Standard_GetInterface                    0x08001dc9   Thumb Code    30  usb_core.o(i.Standard_GetInterface)
    Standard_GetStatus                       0x08001df1   Thumb Code   130  usb_core.o(i.Standard_GetStatus)
    Standard_SetConfiguration                0x08001e85   Thumb Code    42  usb_core.o(i.Standard_SetConfiguration)
    Standard_SetDeviceFeature                0x08001ebd   Thumb Code    26  usb_core.o(i.Standard_SetDeviceFeature)
    Standard_SetEndPointFeature              0x08001ee1   Thumb Code   118  usb_core.o(i.Standard_SetEndPointFeature)
    Standard_SetInterface                    0x08001f69   Thumb Code    60  usb_core.o(i.Standard_SetInterface)
    Suspend                                  0x08001fb1   Thumb Code   110  usb_pwr.o(i.Suspend)
    SysTick_Handler                          0x0800202d   Thumb Code    10  stm32_it.o(i.SysTick_Handler)
    SystemInit                               0x0800203d   Thumb Code    64  system_stm32f10x.o(i.SystemInit)
    USBWakeUp_IRQHandler                     0x0800208d   Thumb Code     8  stm32_it.o(i.USBWakeUp_IRQHandler)
    USB_Cable_Config                         0x08002095   Thumb Code    20  hw_config.o(i.USB_Cable_Config)
    USB_Init                                 0x080020ad   Thumb Code    22  usb_init.o(i.USB_Init)
    USB_Interrupts_Config                    0x080020d5   Thumb Code    60  hw_config.o(i.USB_Interrupts_Config)
    USB_Istr                                 0x08002111   Thumb Code   302  usb_istr.o(i.USB_Istr)
    USB_LP_CAN1_RX0_IRQHandler               0x08002259   Thumb Code     4  stm32_it.o(i.USB_LP_CAN1_RX0_IRQHandler)
    USB_SIL_Init                             0x0800225d   Thumb Code    24  usb_sil.o(i.USB_SIL_Init)
    USB_SIL_Read                             0x0800227d   Thumb Code    36  usb_sil.o(i.USB_SIL_Read)
    USB_SIL_Write                            0x080022a1   Thumb Code    38  usb_sil.o(i.USB_SIL_Write)
    UsageFault_Handler                       0x080022c7   Thumb Code     2  stm32_it.o(i.UsageFault_Handler)
    UserToPMABufferCopy                      0x080022c9   Thumb Code    38  usb_mem.o(i.UserToPMABufferCopy)
    __scatterload_copy                       0x080022f5   Thumb Code    14  handlers.o(i.__scatterload_copy)
    __scatterload_null                       0x08002303   Thumb Code     2  handlers.o(i.__scatterload_null)
    __scatterload_zeroinit                   0x08002305   Thumb Code    14  handlers.o(i.__scatterload_zeroinit)
    main                                     0x08002315   Thumb Code   118  main.o(i.main)
    COM_TX_PIN                               0x08002398   Data           4  stm3210b_eval.o(.constdata)
    COM_RX_PIN                               0x0800239c   Data           4  stm3210b_eval.o(.constdata)
    GPIO_PIN                                 0x080023a0   Data           8  stm3210b_eval.o(.constdata)
    COM_USART_CLK                            0x080023a8   Data           8  stm3210b_eval.o(.constdata)
    COM_TX_PORT_CLK                          0x080023b0   Data           8  stm3210b_eval.o(.constdata)
    COM_RX_PORT_CLK                          0x080023b8   Data           8  stm3210b_eval.o(.constdata)
    GPIO_CLK                                 0x080023c0   Data          16  stm3210b_eval.o(.constdata)
    BUTTON_PIN                               0x080023d0   Data          16  stm3210b_eval.o(.constdata)
    BUTTON_CLK                               0x080023e0   Data          32  stm3210b_eval.o(.constdata)
    BUTTON_EXTI_LINE                         0x08002400   Data          16  stm3210b_eval.o(.constdata)
    BUTTON_PORT_SOURCE                       0x08002410   Data          16  stm3210b_eval.o(.constdata)
    BUTTON_PIN_SOURCE                        0x08002420   Data          16  stm3210b_eval.o(.constdata)
    BUTTON_IRQn                              0x08002430   Data          16  stm3210b_eval.o(.constdata)
    CustomHID_DeviceDescriptor               0x08002440   Data          18  usb_desc.o(.constdata)
    CustomHID_ConfigDescriptor               0x08002452   Data          41  usb_desc.o(.constdata)
    CustomHID_ReportDescriptor               0x0800247b   Data          44  usb_desc.o(.constdata)
    CustomHID_StringLangID                   0x080024a7   Data           4  usb_desc.o(.constdata)
    CustomHID_StringVendor                   0x080024ab   Data          38  usb_desc.o(.constdata)
    CustomHID_StringProduct                  0x080024d1   Data          32  usb_desc.o(.constdata)
    Region$$Table$$Base                      0x080024f4   Number         0  anon$$obj.o(Region$$Table)
    Region$$Table$$Limit                     0x08002514   Number         0  anon$$obj.o(Region$$Table)
    SaveRState                               0x20000000   Data           2  usb_int.o(.data)
    SaveTState                               0x20000002   Data           2  usb_int.o(.data)
    Data_Mul_MaxPacketSize                   0x20000004   Data           1  usb_core.o(.data)
    StatusInfo                               0x20000006   Data           2  usb_core.o(.data)
    DevRemoteWakeup                          0x20000008   Data           4  usb_core.o(.data)
    EPindex                                  0x2000000c   Data           1  usb_init.o(.data)
    pInformation                             0x20000010   Data           4  usb_init.o(.data)
    pProperty                                0x20000014   Data           4  usb_init.o(.data)
    pUser_Standard_Requests                  0x20000018   Data           4  usb_init.o(.data)
    wInterrupt_Mask                          0x2000001c   Data           2  usb_init.o(.data)
    COM_USART                                0x20000020   Data           8  stm3210b_eval.o(.data)
    COM_TX_PORT                              0x20000028   Data           8  stm3210b_eval.o(.data)
    COM_RX_PORT                              0x20000030   Data           8  stm3210b_eval.o(.data)
    GPIO_PORT                                0x20000038   Data          16  stm3210b_eval.o(.data)
    BUTTON_PORT                              0x20000048   Data          32  stm3210b_eval.o(.data)
    Receive_Buffer                           0x20000068   Data           2  usb_endp.o(.data)
    CustomHID_StringSerial                   0x2000006a   Data          26  usb_desc.o(.data)
    Send_Buffer                              0x20000084   Data           2  stm32_it.o(.data)
    bIntPackSOF                              0x20000088   Data           1  usb_istr.o(.data)
    wIstr                                    0x2000008a   Data           2  usb_istr.o(.data)
    esof_counter                             0x2000008c   Data           4  usb_istr.o(.data)
    wCNTR                                    0x20000090   Data           4  usb_istr.o(.data)
    pEpInt_IN                                0x20000094   Data          28  usb_istr.o(.data)
    pEpInt_OUT                               0x200000b0   Data          28  usb_istr.o(.data)
    bDeviceState                             0x200000cc   Data           4  usb_pwr.o(.data)
    fSuspendEnabled                          0x200000d0   Data           1  usb_pwr.o(.data)
    ResumeS                                  0x200000d4   Data           2  usb_pwr.o(.data)
    remotewakeupon                           0x200000d8   Data           4  usb_pwr.o(.data)
    Request                                  0x200000dc   Data           1  usb_prop.o(.data)
    Report_Buf                               0x200000dd   Data           2  usb_prop.o(.data)
    ProtocolValue                            0x200000e0   Data           4  usb_prop.o(.data)
    Device_Descriptor                        0x200000e4   Data           8  usb_prop.o(.data)
    Config_Descriptor                        0x200000ec   Data           8  usb_prop.o(.data)
    CustomHID_Report_Descriptor              0x200000f4   Data           8  usb_prop.o(.data)
    CustomHID_Hid_Descriptor                 0x200000fc   Data           8  usb_prop.o(.data)
    Device_Property                          0x20000104   Data          48  usb_prop.o(.data)
    String_Descriptor                        0x20000134   Data          32  usb_prop.o(.data)
    Device_Table                             0x20000154   Data           2  usb_prop.o(.data)
    User_Standard_Requests                   0x20000158   Data          36  usb_prop.o(.data)
    ADC_ConvertedValueX                      0x2000017c   Data           4  hw_config.o(.data)
    ADC_ConvertedValueX_1                    0x20000180   Data           4  hw_config.o(.data)
    PrevXferComplete                         0x20000184   Data           1  main.o(.data)
    TimingDelay                              0x20000188   Data           4  main.o(.data)
    TX_ADDRESS                               0x2000018c   Data           5  bsp_spi_nrf.o(.data)
    RX_ADDRESS                               0x20000191   Data           5  bsp_spi_nrf.o(.data)
    Device_Info                              0x20000198   Data          28  usb_init.o(.bss)
    EP                                       0x200001b4   Data          32  usb_pwr.o(.bss)
    __initial_sp                             0x200005d8   Data           0  startup_stm32f10x_md.o(STACK)



==============================================================================

Memory Map of the image

  Image Entry point : 0x080000ed

  Load Region LR_IROM1 (Base: 0x08000000, Size: 0x000026ac, Max: 0x00020000, ABSOLUTE, COMPRESSED[0x000025c0])

    Execution Region ER_IROM1 (Exec base: 0x08000000, Load base: 0x08000000, Size: 0x00002514, Max: 0x00020000, ABSOLUTE)

    Exec Addr    Load Addr    Size         Type   Attr      Idx    E Section Name        Object

    0x08000000   0x08000000   0x000000ec   Data   RO         1509    RESET               startup_stm32f10x_md.o
    0x080000ec   0x080000ec   0x00000000   Code   RO         3343  * .ARM.Collect$$$$00000000  mc_w.l(entry.o)
    0x080000ec   0x080000ec   0x00000004   Code   RO         3346    .ARM.Collect$$$$00000001  mc_w.l(entry2.o)
    0x080000f0   0x080000f0   0x00000004   Code   RO         3349    .ARM.Collect$$$$00000004  mc_w.l(entry5.o)
    0x080000f4   0x080000f4   0x00000000   Code   RO         3351    .ARM.Collect$$$$00000008  mc_w.l(entry7b.o)
    0x080000f4   0x080000f4   0x00000000   Code   RO         3353    .ARM.Collect$$$$0000000A  mc_w.l(entry8b.o)
    0x080000f4   0x080000f4   0x00000008   Code   RO         3354    .ARM.Collect$$$$0000000B  mc_w.l(entry9a.o)
    0x080000fc   0x080000fc   0x00000000   Code   RO         3356    .ARM.Collect$$$$0000000D  mc_w.l(entry10a.o)
    0x080000fc   0x080000fc   0x00000000   Code   RO         3358    .ARM.Collect$$$$0000000F  mc_w.l(entry11a.o)
    0x080000fc   0x080000fc   0x00000004   Code   RO         3347    .ARM.Collect$$$$00002712  mc_w.l(entry2.o)
    0x08000100   0x08000100   0x00000024   Code   RO         1510    .text               startup_stm32f10x_md.o
    0x08000124   0x08000124   0x00000024   Code   RO         3360    .text               mc_w.l(init.o)
    0x08000148   0x08000148   0x00000056   Code   RO         3370    .text               mc_w.l(__dczerorl2.o)
    0x0800019e   0x0800019e   0x00000014   Code   RO         2514    i.ADC_Cmd           stm32f10x_adc.o
    0x080001b2   0x080001b2   0x00000002   PAD
    0x080001b4   0x080001b4   0x000000cc   Code   RO         1303    i.ADC_Configuration  hw_config.o
    0x08000280   0x08000280   0x00000014   Code   RO         2515    i.ADC_DMACmd        stm32f10x_adc.o
    0x08000294   0x08000294   0x0000000e   Code   RO         2522    i.ADC_GetCalibrationStatus  stm32f10x_adc.o
    0x080002a2   0x080002a2   0x0000000e   Code   RO         2528    i.ADC_GetResetCalibrationStatus  stm32f10x_adc.o
    0x080002b0   0x080002b0   0x00000048   Code   RO         2532    i.ADC_Init          stm32f10x_adc.o
    0x080002f8   0x080002f8   0x00000074   Code   RO         2536    i.ADC_RegularChannelConfig  stm32f10x_adc.o
    0x0800036c   0x0800036c   0x0000000a   Code   RO         2537    i.ADC_ResetCalibration  stm32f10x_adc.o
    0x08000376   0x08000376   0x00000014   Code   RO         2539    i.ADC_SoftwareStartConvCmd  stm32f10x_adc.o
    0x0800038a   0x0800038a   0x0000000a   Code   RO         2541    i.ADC_StartCalibration  stm32f10x_adc.o
    0x08000394   0x08000394   0x00000002   Code   RO          960    i.BusFault_Handler  stm32_it.o
    0x08000396   0x08000396   0x0000000a   Code   RO          180    i.ByteSwap          usb_regs.o
    0x080003a0   0x080003a0   0x0000015c   Code   RO          553    i.CTR_LP            usb_int.o
    0x080004fc   0x080004fc   0x00000028   Code   RO          181    i.ClearDTOG_RX      usb_regs.o
    0x08000524   0x08000524   0x00000028   Code   RO          182    i.ClearDTOG_TX      usb_regs.o
    0x0800054c   0x0800054c   0x00000020   Code   RO          187    i.Clear_Status_Out  usb_regs.o
    0x0800056c   0x0800056c   0x00000078   Code   RO         1165    i.CustomHID_Data_Setup  usb_prop.o
    0x080005e4   0x080005e4   0x0000000c   Code   RO         1166    i.CustomHID_GetConfigDescriptor  usb_prop.o
    0x080005f0   0x080005f0   0x0000000c   Code   RO         1167    i.CustomHID_GetDeviceDescriptor  usb_prop.o
    0x080005fc   0x080005fc   0x0000000c   Code   RO         1168    i.CustomHID_GetHIDDescriptor  usb_prop.o
    0x08000608   0x08000608   0x0000001c   Code   RO         1169    i.CustomHID_GetProtocolValue  usb_prop.o
    0x08000624   0x08000624   0x0000000c   Code   RO         1170    i.CustomHID_GetReportDescriptor  usb_prop.o
    0x08000630   0x08000630   0x00000020   Code   RO         1171    i.CustomHID_GetStringDescriptor  usb_prop.o
    0x08000650   0x08000650   0x0000000a   Code   RO         1172    i.CustomHID_Get_Interface_Setting  usb_prop.o
    0x0800065a   0x0800065a   0x00000002   PAD
    0x0800065c   0x0800065c   0x00000020   Code   RO         1173    i.CustomHID_NoData_Setup  usb_prop.o
    0x0800067c   0x0800067c   0x000000b0   Code   RO         1174    i.CustomHID_Reset   usb_prop.o
    0x0800072c   0x0800072c   0x00000028   Code   RO         1175    i.CustomHID_SetConfiguration  usb_prop.o
    0x08000754   0x08000754   0x0000000c   Code   RO         1176    i.CustomHID_SetDeviceAddress  usb_prop.o
    0x08000760   0x08000760   0x00000018   Code   RO         1177    i.CustomHID_SetProtocol  usb_prop.o
    0x08000778   0x08000778   0x0000001c   Code   RO         1178    i.CustomHID_SetReport_Feature  usb_prop.o
    0x08000794   0x08000794   0x00000064   Code   RO         1179    i.CustomHID_Status_In  usb_prop.o
    0x080007f8   0x080007f8   0x00000002   Code   RO         1180    i.CustomHID_Status_Out  usb_prop.o
    0x080007fa   0x080007fa   0x00000002   PAD
    0x080007fc   0x080007fc   0x00000024   Code   RO         1181    i.CustomHID_init    usb_prop.o
    0x08000820   0x08000820   0x00000060   Code   RO          961    i.DMA1_Channel1_IRQHandler  stm32_it.o
    0x08000880   0x08000880   0x00000018   Code   RO         2226    i.DMA_ClearFlag     stm32f10x_dma.o
    0x08000898   0x08000898   0x00000016   Code   RO         2228    i.DMA_Cmd           stm32f10x_dma.o
    0x080008ae   0x080008ae   0x00000002   PAD
    0x080008b0   0x080008b0   0x000000e4   Code   RO         2229    i.DMA_DeInit        stm32f10x_dma.o
    0x08000994   0x08000994   0x00000010   Code   RO         2233    i.DMA_ITConfig      stm32f10x_dma.o
    0x080009a4   0x080009a4   0x0000003a   Code   RO         2234    i.DMA_Init          stm32f10x_dma.o
    0x080009de   0x080009de   0x00000002   PAD
    0x080009e0   0x080009e0   0x000000b4   Code   RO          594    i.DataStageIn       usb_core.o
    0x08000a94   0x08000a94   0x000000c8   Code   RO          595    i.DataStageOut      usb_core.o
    0x08000b5c   0x08000b5c   0x0000019c   Code   RO          596    i.Data_Setup0       usb_core.o
    0x08000cf8   0x08000cf8   0x00000002   Code   RO          962    i.DebugMon_Handler  stm32_it.o
    0x08000cfa   0x08000cfa   0x00000002   PAD
    0x08000cfc   0x08000cfc   0x0000001c   Code   RO         1382    i.Delay             main.o
    0x08000d18   0x08000d18   0x0000000c   Code   RO          893    i.EP1_IN_Callback   usb_endp.o
    0x08000d24   0x08000d24   0x00000074   Code   RO          894    i.EP1_OUT_Callback  usb_endp.o
    0x08000d98   0x08000d98   0x00000064   Code   RO          963    i.EXTI15_10_IRQHandler  stm32_it.o
    0x08000dfc   0x08000dfc   0x00000064   Code   RO          964    i.EXTI9_5_IRQHandler  stm32_it.o
    0x08000e60   0x08000e60   0x0000000c   Code   RO         2743    i.EXTI_ClearITPendingBit  stm32f10x_exti.o
    0x08000e6c   0x08000e6c   0x00000062   Code   RO         1304    i.EXTI_Configuration  hw_config.o
    0x08000ece   0x08000ece   0x00000002   PAD
    0x08000ed0   0x08000ed0   0x00000020   Code   RO         2747    i.EXTI_GetITStatus  stm32f10x_exti.o
    0x08000ef0   0x08000ef0   0x00000070   Code   RO         2748    i.EXTI_Init         stm32f10x_exti.o
    0x08000f60   0x08000f60   0x00000028   Code   RO         2313    i.GPIO_EXTILineConfig  stm32f10x_gpio.o
    0x08000f88   0x08000f88   0x000000a2   Code   RO         2316    i.GPIO_Init         stm32f10x_gpio.o
    0x0800102a   0x0800102a   0x0000000e   Code   RO         2320    i.GPIO_ReadInputDataBit  stm32f10x_gpio.o
    0x08001038   0x08001038   0x00000004   Code   RO         2323    i.GPIO_ResetBits    stm32f10x_gpio.o
    0x0800103c   0x0800103c   0x00000004   Code   RO         2324    i.GPIO_SetBits      stm32f10x_gpio.o
    0x08001040   0x08001040   0x00000020   Code   RO          199    i.GetEPRxAddr       usb_regs.o
    0x08001060   0x08001060   0x00000020   Code   RO          200    i.GetEPRxCount      usb_regs.o
    0x08001080   0x08001080   0x0000001c   Code   RO          202    i.GetEPTxAddr       usb_regs.o
    0x0800109c   0x0800109c   0x00000034   Code   RO         1305    i.Get_SerialNum     hw_config.o
    0x080010d0   0x080010d0   0x00000002   Code   RO          965    i.HardFault_Handler  stm32_it.o
    0x080010d2   0x080010d2   0x00000002   PAD
    0x080010d4   0x080010d4   0x0000005c   Code   RO          597    i.In0_Process       usb_core.o
    0x08001130   0x08001130   0x00000038   Code   RO         1306    i.IntToUnicode      hw_config.o
    0x08001168   0x08001168   0x00000002   Code   RO          966    i.MemManage_Handler  stm32_it.o
    0x0800116a   0x0800116a   0x00000002   Code   RO          967    i.NMI_Handler       stm32_it.o
    0x0800116c   0x0800116c   0x00000002   Code   RO          598    i.NOP_Process       usb_core.o
    0x0800116e   0x0800116e   0x00000002   PAD
    0x08001170   0x08001170   0x00000048   Code   RO         1418    i.NRF_Check         bsp_spi_nrf.o
    0x080011b8   0x080011b8   0x0000005c   Code   RO         1419    i.NRF_RX_Mode       bsp_spi_nrf.o
    0x08001214   0x08001214   0x00000054   Code   RO         1420    i.NRF_Rx_Dat        bsp_spi_nrf.o
    0x08001268   0x08001268   0x00000064   Code   RO         2178    i.NVIC_Init         misc.o
    0x080012cc   0x080012cc   0x00000014   Code   RO         2179    i.NVIC_PriorityGroupConfig  misc.o
    0x080012e0   0x080012e0   0x000000dc   Code   RO          599    i.NoData_Setup0     usb_core.o
    0x080013bc   0x080013bc   0x00000048   Code   RO          600    i.Out0_Process      usb_core.o
    0x08001404   0x08001404   0x00000020   Code   RO          725    i.PMAToUserBufferCopy  usb_mem.o
    0x08001424   0x08001424   0x00000002   Code   RO          968    i.PendSV_Handler    stm32_it.o
    0x08001426   0x08001426   0x00000002   PAD
    0x08001428   0x08001428   0x00000044   Code   RO          601    i.Post0_Process     usb_core.o
    0x0800146c   0x0800146c   0x00000034   Code   RO         1109    i.PowerOn           usb_pwr.o
    0x080014a0   0x080014a0   0x00000018   Code   RO         1559    i.RCC_AHBPeriphClockCmd  stm32f10x_rcc.o
    0x080014b8   0x080014b8   0x00000018   Code   RO         1560    i.RCC_APB1PeriphClockCmd  stm32f10x_rcc.o
    0x080014d0   0x080014d0   0x00000018   Code   RO         1562    i.RCC_APB2PeriphClockCmd  stm32f10x_rcc.o
    0x080014e8   0x080014e8   0x0000000c   Code   RO         1588    i.RCC_USBCLKConfig  stm32f10x_rcc.o
    0x080014f4   0x080014f4   0x00000090   Code   RO         1110    i.Resume            usb_pwr.o
    0x08001584   0x08001584   0x00000018   Code   RO         1111    i.Resume_Init       usb_pwr.o
    0x0800159c   0x0800159c   0x00000014   Code   RO         2997    i.SPI_Cmd           stm32f10x_spi.o
    0x080015b0   0x080015b0   0x0000000e   Code   RO         3005    i.SPI_I2S_GetFlagStatus  stm32f10x_spi.o
    0x080015be   0x080015be   0x00000004   Code   RO         3008    i.SPI_I2S_ReceiveData  stm32f10x_spi.o
    0x080015c2   0x080015c2   0x00000004   Code   RO         3009    i.SPI_I2S_SendData  stm32f10x_spi.o
    0x080015c6   0x080015c6   0x00000038   Code   RO         3010    i.SPI_Init          stm32f10x_spi.o
    0x080015fe   0x080015fe   0x00000002   PAD
    0x08001600   0x08001600   0x000000bc   Code   RO         1423    i.SPI_NRF_Init      bsp_spi_nrf.o
    0x080016bc   0x080016bc   0x00000034   Code   RO         1424    i.SPI_NRF_RW        bsp_spi_nrf.o
    0x080016f0   0x080016f0   0x0000004c   Code   RO         1425    i.SPI_NRF_ReadBuf   bsp_spi_nrf.o
    0x0800173c   0x0800173c   0x00000034   Code   RO         1426    i.SPI_NRF_ReadReg   bsp_spi_nrf.o
    0x08001770   0x08001770   0x0000004c   Code   RO         1427    i.SPI_NRF_WriteBuf  bsp_spi_nrf.o
    0x080017bc   0x080017bc   0x00000038   Code   RO         1428    i.SPI_NRF_WriteReg  bsp_spi_nrf.o
    0x080017f4   0x080017f4   0x00000040   Code   RO          798    i.STM_EVAL_LEDInit  stm3210b_eval.o
    0x08001834   0x08001834   0x00000018   Code   RO          799    i.STM_EVAL_LEDOff   stm3210b_eval.o
    0x0800184c   0x0800184c   0x00000018   Code   RO          800    i.STM_EVAL_LEDOn    stm3210b_eval.o
    0x08001864   0x08001864   0x00000018   Code   RO          802    i.STM_EVAL_PBGetState  stm3210b_eval.o
    0x0800187c   0x0800187c   0x0000009c   Code   RO          803    i.STM_EVAL_PBInit   stm3210b_eval.o
    0x08001918   0x08001918   0x00000002   Code   RO          969    i.SVC_Handler       stm32_it.o
    0x0800191a   0x0800191a   0x00000002   PAD
    0x0800191c   0x0800191c   0x00000010   Code   RO          210    i.SetBTABLE         usb_regs.o
    0x0800192c   0x0800192c   0x00000048   Code   RO          602    i.SetDeviceAddress  usb_core.o
    0x08001974   0x08001974   0x00000020   Code   RO          224    i.SetEPRxAddr       usb_regs.o
    0x08001994   0x08001994   0x00000040   Code   RO          225    i.SetEPRxCount      usb_regs.o
    0x080019d4   0x080019d4   0x00000030   Code   RO          226    i.SetEPRxStatus     usb_regs.o
    0x08001a04   0x08001a04   0x00000024   Code   RO          227    i.SetEPRxValid      usb_regs.o
    0x08001a28   0x08001a28   0x00000020   Code   RO          228    i.SetEPTxAddr       usb_regs.o
    0x08001a48   0x08001a48   0x0000001c   Code   RO          229    i.SetEPTxCount      usb_regs.o
    0x08001a64   0x08001a64   0x00000030   Code   RO          230    i.SetEPTxStatus     usb_regs.o
    0x08001a94   0x08001a94   0x00000024   Code   RO          231    i.SetEPTxValid      usb_regs.o
    0x08001ab8   0x08001ab8   0x0000001c   Code   RO          232    i.SetEPType         usb_regs.o
    0x08001ad4   0x08001ad4   0x0000000c   Code   RO          234    i.SetISTR           usb_regs.o
    0x08001ae0   0x08001ae0   0x000000a8   Code   RO         1517    i.SetSysClockTo72   system_stm32f10x.o
    0x08001b88   0x08001b88   0x00000084   Code   RO         1308    i.Set_System        hw_config.o
    0x08001c0c   0x08001c0c   0x00000014   Code   RO         1309    i.Set_USBClock      hw_config.o
    0x08001c20   0x08001c20   0x00000068   Code   RO          603    i.Setup0_Process    usb_core.o
    0x08001c88   0x08001c88   0x000000fc   Code   RO          604    i.Standard_ClearFeature  usb_core.o
    0x08001d84   0x08001d84   0x00000028   Code   RO          605    i.Standard_GetConfiguration  usb_core.o
    0x08001dac   0x08001dac   0x0000001c   Code   RO          606    i.Standard_GetDescriptorData  usb_core.o
    0x08001dc8   0x08001dc8   0x00000028   Code   RO          607    i.Standard_GetInterface  usb_core.o
    0x08001df0   0x08001df0   0x00000094   Code   RO          608    i.Standard_GetStatus  usb_core.o
    0x08001e84   0x08001e84   0x00000038   Code   RO          609    i.Standard_SetConfiguration  usb_core.o
    0x08001ebc   0x08001ebc   0x00000024   Code   RO          610    i.Standard_SetDeviceFeature  usb_core.o
    0x08001ee0   0x08001ee0   0x00000088   Code   RO          611    i.Standard_SetEndPointFeature  usb_core.o
    0x08001f68   0x08001f68   0x00000048   Code   RO          612    i.Standard_SetInterface  usb_core.o
    0x08001fb0   0x08001fb0   0x0000007c   Code   RO         1112    i.Suspend           usb_pwr.o
    0x0800202c   0x0800202c   0x00000010   Code   RO          970    i.SysTick_Handler   stm32_it.o
    0x0800203c   0x0800203c   0x00000050   Code   RO         1519    i.SystemInit        system_stm32f10x.o
    0x0800208c   0x0800208c   0x00000008   Code   RO          971    i.USBWakeUp_IRQHandler  stm32_it.o
    0x08002094   0x08002094   0x00000018   Code   RO         1310    i.USB_Cable_Config  hw_config.o
    0x080020ac   0x080020ac   0x00000028   Code   RO          755    i.USB_Init          usb_init.o
    0x080020d4   0x080020d4   0x0000003c   Code   RO         1311    i.USB_Interrupts_Config  hw_config.o
    0x08002110   0x08002110   0x00000148   Code   RO         1073    i.USB_Istr          usb_istr.o
    0x08002258   0x08002258   0x00000004   Code   RO          972    i.USB_LP_CAN1_RX0_IRQHandler  stm32_it.o
    0x0800225c   0x0800225c   0x00000020   Code   RO            4    i.USB_SIL_Init      usb_sil.o
    0x0800227c   0x0800227c   0x00000024   Code   RO            5    i.USB_SIL_Read      usb_sil.o
    0x080022a0   0x080022a0   0x00000026   Code   RO            6    i.USB_SIL_Write     usb_sil.o
    0x080022c6   0x080022c6   0x00000002   Code   RO          973    i.UsageFault_Handler  stm32_it.o
    0x080022c8   0x080022c8   0x0000002c   Code   RO          726    i.UserToPMABufferCopy  usb_mem.o
    0x080022f4   0x080022f4   0x0000000e   Code   RO         3364    i.__scatterload_copy  mc_w.l(handlers.o)
    0x08002302   0x08002302   0x00000002   Code   RO         3365    i.__scatterload_null  mc_w.l(handlers.o)
    0x08002304   0x08002304   0x0000000e   Code   RO         3366    i.__scatterload_zeroinit  mc_w.l(handlers.o)
    0x08002312   0x08002312   0x00000002   PAD
    0x08002314   0x08002314   0x00000084   Code   RO         1383    i.main              main.o
    0x08002398   0x08002398   0x000000a8   Data   RO          806    .constdata          stm3210b_eval.o
    0x08002440   0x08002440   0x00000012   Data   RO          930    .constdata          usb_desc.o
    0x08002452   0x08002452   0x00000029   Data   RO          931    .constdata          usb_desc.o
    0x0800247b   0x0800247b   0x0000002c   Data   RO          932    .constdata          usb_desc.o
    0x080024a7   0x080024a7   0x00000004   Data   RO          933    .constdata          usb_desc.o
    0x080024ab   0x080024ab   0x00000026   Data   RO          934    .constdata          usb_desc.o
    0x080024d1   0x080024d1   0x00000020   Data   RO          935    .constdata          usb_desc.o
    0x080024f1   0x080024f1   0x00000003   PAD
    0x080024f4   0x080024f4   0x00000020   Data   RO         3362    Region$$Table       anon$$obj.o


    Execution Region RW_IRAM1 (Exec base: 0x20000000, Load base: 0x08002514, Size: 0x000005d8, Max: 0x00005000, ABSOLUTE, COMPRESSED[0x000000ac])

    Exec Addr    Load Addr    Size         Type   Attr      Idx    E Section Name        Object

    0x20000000   COMPRESSED   0x00000004   Data   RW          554    .data               usb_int.o
    0x20000004   COMPRESSED   0x00000008   Data   RW          613    .data               usb_core.o
    0x2000000c   COMPRESSED   0x00000001   Data   RW          757    .data               usb_init.o
    0x2000000d   COMPRESSED   0x00000003   PAD
    0x20000010   COMPRESSED   0x0000000c   Data   RW          758    .data               usb_init.o
    0x2000001c   COMPRESSED   0x00000002   Data   RW          760    .data               usb_init.o
    0x2000001e   COMPRESSED   0x00000002   PAD
    0x20000020   COMPRESSED   0x00000048   Data   RW          807    .data               stm3210b_eval.o
    0x20000068   COMPRESSED   0x00000002   Data   RW          895    .data               usb_endp.o
    0x2000006a   COMPRESSED   0x0000001a   Data   RW          936    .data               usb_desc.o
    0x20000084   COMPRESSED   0x00000002   Data   RW          974    .data               stm32_it.o
    0x20000086   COMPRESSED   0x00000002   PAD
    0x20000088   COMPRESSED   0x0000000c   Data   RW         1074    .data               usb_istr.o
    0x20000094   COMPRESSED   0x0000001c   Data   RW         1075    .data               usb_istr.o
    0x200000b0   COMPRESSED   0x0000001c   Data   RW         1076    .data               usb_istr.o
    0x200000cc   COMPRESSED   0x00000004   Data   RW         1114    .data               usb_pwr.o
    0x200000d0   COMPRESSED   0x00000001   Data   RW         1115    .data               usb_pwr.o
    0x200000d1   COMPRESSED   0x00000003   PAD
    0x200000d4   COMPRESSED   0x00000008   Data   RW         1116    .data               usb_pwr.o
    0x200000dc   COMPRESSED   0x00000078   Data   RW         1182    .data               usb_prop.o
    0x20000154   COMPRESSED   0x00000002   Data   RW         1183    .data               usb_prop.o
    0x20000156   COMPRESSED   0x00000002   PAD
    0x20000158   COMPRESSED   0x00000024   Data   RW         1184    .data               usb_prop.o
    0x2000017c   COMPRESSED   0x00000004   Data   RW         1312    .data               hw_config.o
    0x20000180   COMPRESSED   0x00000004   Data   RW         1313    .data               hw_config.o
    0x20000184   COMPRESSED   0x00000008   Data   RW         1384    .data               main.o
    0x2000018c   COMPRESSED   0x0000000a   Data   RW         1429    .data               bsp_spi_nrf.o
    0x20000196   COMPRESSED   0x00000002   PAD
    0x20000198        -       0x0000001c   Zero   RW          756    .bss                usb_init.o
    0x200001b4        -       0x00000020   Zero   RW         1113    .bss                usb_pwr.o
    0x200001d4   COMPRESSED   0x00000004   PAD
    0x200001d8        -       0x00000400   Zero   RW         1507    STACK               startup_stm32f10x_md.o


==============================================================================

Image component sizes


      Code (inc. data)   RO Data    RW Data    ZI Data      Debug   Object Name

       748         60          0         10          0       6819   bsp_spi_nrf.o
       646         34          0          8          0       5683   hw_config.o
       160         20          0          8          0       1870   main.o
       120         16          0          0          0       1795   misc.o
        36          8        236          0       1024        816   startup_stm32f10x_md.o
       292         42        168         72          0       4918   stm3210b_eval.o
       340         52          0          2          0       7688   stm32_it.o
       296         10          0          0          0       8373   stm32f10x_adc.o
       348         18          0          0          0       5265   stm32f10x_dma.o
       156         14          0          0          0       2560   stm32f10x_exti.o
       224          6          0          0          0       4778   stm32f10x_gpio.o
        84         22          0          0          0       2621   stm32f10x_rcc.o
        98          0          0          0          0       4410   stm32f10x_spi.o
       248         24          0          0          0       1633   system_stm32f10x.o
      2230        290          0          8          0      16483   usb_core.o
         0          0        177         26          0       1132   usb_desc.o
       128          8          0          2          0       1825   usb_endp.o
        40         18          0         15         28       4390   usb_init.o
       348         30          0          4          0       1916   usb_int.o
       328         26          0         68          0       1687   usb_istr.o
        76         12          0          0          0       2048   usb_mem.o
       688        138          0        158          0      13646   usb_prop.o
       344         40          0         13         32       3740   usb_pwr.o
       594        106          0          0          0      11603   usb_regs.o
       106          8          0          0          0     264638   usb_sil.o

    ----------------------------------------------------------------------
      8702       1002        616        408       1088     382337   Object Totals
         0          0         32          0          0          0   (incl. Generated)
        24          0          3         14          4          0   (incl. Padding)

    ----------------------------------------------------------------------

      Code (inc. data)   RO Data    RW Data    ZI Data      Debug   Library Member Name

        86          0          0          0          0          0   __dczerorl2.o
         0          0          0          0          0          0   entry.o
         0          0          0          0          0          0   entry10a.o
         0          0          0          0          0          0   entry11a.o
         8          4          0          0          0          0   entry2.o
         4          0          0          0          0          0   entry5.o
         0          0          0          0          0          0   entry7b.o
         0          0          0          0          0          0   entry8b.o
         8          4          0          0          0          0   entry9a.o
        30          0          0          0          0          0   handlers.o
        36          8          0          0          0         68   init.o

    ----------------------------------------------------------------------
       174         16          0          0          0         68   Library Totals
         2          0          0          0          0          0   (incl. Padding)

    ----------------------------------------------------------------------

      Code (inc. data)   RO Data    RW Data    ZI Data      Debug   Library Name

       172         16          0          0          0         68   mc_w.l

    ----------------------------------------------------------------------
       174         16          0          0          0         68   Library Totals

    ----------------------------------------------------------------------

==============================================================================


      Code (inc. data)   RO Data    RW Data    ZI Data      Debug   

      8876       1018        616        408       1088     375721   Grand Totals
      8876       1018        616        172       1088     375721   ELF Image Totals (compressed)
      8876       1018        616        172          0          0   ROM Totals

==============================================================================

    Total RO  Size (Code + RO Data)                 9492 (   9.27kB)
    Total RW  Size (RW Data + ZI Data)              1496 (   1.46kB)
    Total ROM Size (Code + RO Data + RW Data)       9664 (   9.44kB)

==============================================================================

