Component: ARM Compiler 5.06 update 6 (build 750) Tool: armlink [4d35ed]

==============================================================================

Section Cross References

    usb_sil.o(i.USB_SIL_Init) refers to usb_init.o(.data) for wInterrupt_Mask
    usb_sil.o(i.USB_SIL_Read) refers to usb_regs.o(i.GetEPRxCount) for GetEPRxCount
    usb_sil.o(i.USB_SIL_Read) refers to usb_regs.o(i.GetEPRxAddr) for GetEPRxAddr
    usb_sil.o(i.USB_SIL_Read) refers to usb_mem.o(i.PMAToUserBufferCopy) for PMAToUserBufferCopy
    usb_sil.o(i.USB_SIL_Write) refers to usb_regs.o(i.GetEPTxAddr) for GetEPTxAddr
    usb_sil.o(i.USB_SIL_Write) refers to usb_mem.o(i.UserToPMABufferCopy) for UserToPMABufferCopy
    usb_sil.o(i.USB_SIL_Write) refers to usb_regs.o(i.SetEPTxCount) for SetEPTxCount
    usb_regs.o(i.SetDouBleBuffEPStall) refers to usb_regs.o(i.GetENDPOINT) for GetENDPOINT
    usb_int.o(i.CTR_HP) refers to usb_init.o(.data) for EPindex
    usb_int.o(i.CTR_HP) refers to usb_istr.o(.data) for wIstr
    usb_int.o(i.CTR_HP) refers to usb_istr.o(.data) for pEpInt_OUT
    usb_int.o(i.CTR_HP) refers to usb_istr.o(.data) for pEpInt_IN
    usb_int.o(i.CTR_LP) refers to usb_core.o(i.In0_Process) for In0_Process
    usb_int.o(i.CTR_LP) refers to usb_core.o(i.Setup0_Process) for Setup0_Process
    usb_int.o(i.CTR_LP) refers to usb_core.o(i.Out0_Process) for Out0_Process
    usb_int.o(i.CTR_LP) refers to usb_int.o(.data) for .data
    usb_int.o(i.CTR_LP) refers to usb_istr.o(.data) for wIstr
    usb_int.o(i.CTR_LP) refers to usb_init.o(.data) for EPindex
==============================================================================

Removing Unused input sections from the image.

    Removing usb_sil.o(.rev16_text), (4 bytes).
    Removing usb_sil.o(.revsh_text), (4 bytes).
    Removing usb_sil.o(.rrx_text), (6 bytes).
    Removing usb_sil.o(i.USB_SIL_Read), (36 bytes).
    Removing usb_regs.o(.rev16_text), (4 bytes).
    Removing usb_regs.o(.revsh_text), (4 bytes).
    Removing usb_regs.o(.rrx_text), (6 bytes).
    Removing usb_regs.o(i.ClearEPDoubleBuff), (32 bytes).
    Removing usb_regs.o(i.ClearEP_CTR_RX), (28 bytes).
    Removing usb_regs.o(i.ClearEP_CTR_TX), (28 bytes).
    Removing usb_regs.o(i.ClearEP_KIND), (32 bytes).
    Removing usb_regs.o(i.FreeUserBuffer), (52 bytes).
    Removing usb_regs.o(i.GetBTABLE), (12 bytes).
    Removing usb_regs.o(i.GetCNTR), (12 bytes).
    Removing usb_regs.o(i.GetDADDR), (12 bytes).
    Removing usb_regs.o(i.GetENDPOINT), (20 bytes).
    Removing usb_regs.o(i.GetEPAddress), (20 bytes).
    Removing usb_regs.o(i.GetEPDblBuf0Addr), (28 bytes).
==============================================================================

Image Symbol Table

    Local Symbols

    Symbol Name                              Value     Ov Type        Size  Object(Section)

    ../../../Libraries/STM32F10x_StdPeriph_Driver/src/misc.c 0x00000000   Number         0  misc.o ABSOLUTE
    ../../../Libraries/STM32F10x_StdPeriph_Driver/src/stm32f10x_dma.c 0x00000000   Number         0  stm32f10x_dma.o ABSOLUTE
    ../../../Libraries/STM32F10x_StdPeriph_Driver/src/stm32f10x_exti.c 0x00000000   Number         0  stm32f10x_exti.o ABSOLUTE
    ../../../Libraries/STM32F10x_StdPeriph_Driver/src/stm32f10x_flash.c 0x00000000   Number         0  stm32f10x_flash.o ABSOLUTE
    ../../../Libraries/STM32F10x_StdPeriph_Driver/src/stm32f10x_gpio.c 0x00000000   Number         0  stm32f10x_gpio.o ABSOLUTE
    ../../../Libraries/STM32F10x_StdPeriph_Driver/src/stm32f10x_i2c.c 0x00000000   Number         0  stm32f10x_i2c.o ABSOLUTE
    ../../../Libraries/STM32F10x_StdPeriph_Driver/src/stm32f10x_pwr.c 0x00000000   Number         0  stm32f10x_pwr.o ABSOLUTE
    ../../../Libraries/STM32F10x_StdPeriph_Driver/src/stm32f10x_rcc.c 0x00000000   Number         0  stm32f10x_rcc.o ABSOLUTE
    ../../../Libraries/STM32F10x_StdPeriph_Driver/src/stm32f10x_usart.c 0x00000000   Number         0  stm32f10x_usart.o ABSOLUTE
    ../../../Libraries/STM32_USB-FS-Device_Driver/src/usb_core.c 0x00000000   Number         0  usb_core.o ABSOLUTE
    ../../../Libraries/STM32_USB-FS-Device_Driver/src/usb_init.c 0x00000000   Number         0  usb_init.o ABSOLUTE
    ../../../Libraries/STM32_USB-FS-Device_Driver/src/usb_int.c 0x00000000   Number         0  usb_int.o ABSOLUTE
    ../../../Libraries/STM32_USB-FS-Device_Driver/src/usb_mem.c 0x00000000   Number         0  usb_mem.o ABSOLUTE
    ../../../Libraries/STM32_USB-FS-Device_Driver/src/usb_regs.c 0x00000000   Number         0  usb_regs.o ABSOLUTE
    ../../../Libraries/STM32_USB-FS-Device_Driver/src/usb_sil.c 0x00000000   Number         0  usb_sil.o ABSOLUTE
    ../../../Utilities/STM32_EVAL/STM3210B_EVAL/stm3210b_eval.c 0x00000000   Number         0  stm3210b_eval.o ABSOLUTE
    ../clib/../cmprslib/zerorunl2.c          0x00000000   Number         0  __dczerorl2.o ABSOLUTE
    ../clib/microlib/init/entry.s            0x00000000   Number         0  entry.o ABSOLUTE
    ../clib/microlib/init/entry.s            0x00000000   Number         0  entry5.o ABSOLUTE
    ../clib/microlib/init/entry.s            0x00000000   Number         0  entry7b.o ABSOLUTE
    ../clib/microlib/init/entry.s            0x00000000   Number         0  entry7a.o ABSOLUTE
    ../clib/microlib/init/entry.s            0x00000000   Number         0  entry9a.o ABSOLUTE
    ../clib/microlib/init/entry.s            0x00000000   Number         0  entry9b.o ABSOLUTE
    ../clib/microlib/init/entry.s            0x00000000   Number         0  entry11b.o ABSOLUTE
    ../clib/microlib/init/entry.s            0x00000000   Number         0  entry11a.o ABSOLUTE
    ../clib/microlib/init/entry.s            0x00000000   Number         0  entry2.o ABSOLUTE
    ../clib/microlib/init/entry.s            0x00000000   Number         0  entry10b.o ABSOLUTE
    ../clib/microlib/init/entry.s            0x00000000   Number         0  entry10a.o ABSOLUTE
    ../clib/microlib/init/entry.s            0x00000000   Number         0  entry8a.o ABSOLUTE
    ../clib/microlib/init/entry.s            0x00000000   Number         0  entry8b.o ABSOLUTE
    ../src/hw_config.c                       0x00000000   Number         0  hw_config.o ABSOLUTE
    ../src/main.c                            0x00000000   Number         0  main.o ABSOLUTE
    ../src/stm32_it.c                        0x00000000   Number         0  stm32_it.o ABSOLUTE
    ../src/system_stm32f10x.c                0x00000000   Number         0  system_stm32f10x.o ABSOLUTE
    ../src/usb_desc.c                        0x00000000   Number         0  usb_desc.o ABSOLUTE
    ../src/usb_endp.c                        0x00000000   Number         0  usb_endp.o ABSOLUTE
    ../src/usb_istr.c                        0x00000000   Number         0  usb_istr.o ABSOLUTE
    ../src/usb_prop.c                        0x00000000   Number         0  usb_prop.o ABSOLUTE
    ../src/usb_pwr.c                         0x00000000   Number         0  usb_pwr.o ABSOLUTE
    ..\..\..\Libraries\STM32F10x_StdPeriph_Driver\src\misc.c 0x00000000   Number         0  misc.o ABSOLUTE
    ..\..\..\Libraries\STM32F10x_StdPeriph_Driver\src\stm32f10x_dma.c 0x00000000   Number         0  stm32f10x_dma.o ABSOLUTE
    ..\..\..\Libraries\STM32F10x_StdPeriph_Driver\src\stm32f10x_exti.c 0x00000000   Number         0  stm32f10x_exti.o ABSOLUTE
    ..\..\..\Libraries\STM32F10x_StdPeriph_Driver\src\stm32f10x_flash.c 0x00000000   Number         0  stm32f10x_flash.o ABSOLUTE
    ..\..\..\Libraries\STM32F10x_StdPeriph_Driver\src\stm32f10x_gpio.c 0x00000000   Number         0  stm32f10x_gpio.o ABSOLUTE
    ..\..\..\Libraries\STM32F10x_StdPeriph_Driver\src\stm32f10x_i2c.c 0x00000000   Number         0  stm32f10x_i2c.o ABSOLUTE
    ..\..\..\Libraries\STM32F10x_StdPeriph_Driver\src\stm32f10x_pwr.c 0x00000000   Number         0  stm32f10x_pwr.o ABSOLUTE
    ..\..\..\Libraries\STM32F10x_StdPeriph_Driver\src\stm32f10x_rcc.c 0x00000000   Number         0  stm32f10x_rcc.o ABSOLUTE
    ..\..\..\Libraries\STM32F10x_StdPeriph_Driver\src\stm32f10x_sdio.c 0x00000000   Number         0  stm32f10x_sdio.o ABSOLUTE
    ..\..\..\Libraries\STM32F10x_StdPeriph_Driver\src\stm32f10x_spi.c 0x00000000   Number         0  stm32f10x_spi.o ABSOLUTE
    ..\..\..\Libraries\STM32F10x_StdPeriph_Driver\src\stm32f10x_usart.c 0x00000000   Number         0  stm32f10x_usart.o ABSOLUTE
    ..\..\..\Libraries\STM32_USB-FS-Device_Driver\src\usb_core.c 0x00000000   Number         0  usb_core.o ABSOLUTE
    ..\..\..\Libraries\STM32_USB-FS-Device_Driver\src\usb_init.c 0x00000000   Number         0  usb_init.o ABSOLUTE
    ..\..\..\Libraries\STM32_USB-FS-Device_Driver\src\usb_int.c 0x00000000   Number         0  usb_int.o ABSOLUTE
    ..\..\..\Libraries\STM32_USB-FS-Device_Driver\src\usb_mem.c 0x00000000   Number         0  usb_mem.o ABSOLUTE
    ..\..\..\Libraries\STM32_USB-FS-Device_Driver\src\usb_regs.c 0x00000000   Number         0  usb_regs.o ABSOLUTE
    ..\..\..\Libraries\STM32_USB-FS-Device_Driver\src\usb_sil.c 0x00000000   Number         0  usb_sil.o ABSOLUTE
    ..\..\..\Utilities\STM32_EVAL\STM3210B_EVAL\stm3210b_eval.c 0x00000000   Number         0  stm3210b_eval.o ABSOLUTE
    ..\\..\\..\\Libraries\\STM32F10x_StdPeriph_Driver\\src\\stm32f10x_sdio.c 0x00000000   Number         0  stm32f10x_sdio.o ABSOLUTE
    ..\\..\\..\\Libraries\\STM32F10x_StdPeriph_Driver\\src\\stm32f10x_spi.c 0x00000000   Number         0  stm32f10x_spi.o ABSOLUTE
    ..\src\hw_config.c                       0x00000000   Number         0  hw_config.o ABSOLUTE
    ..\src\main.c                            0x00000000   Number         0  main.o ABSOLUTE
    ..\src\stm32_it.c                        0x00000000   Number         0  stm32_it.o ABSOLUTE
    ..\src\system_stm32f10x.c                0x00000000   Number         0  system_stm32f10x.o ABSOLUTE
    ..\src\usb_desc.c                        0x00000000   Number         0  usb_desc.o ABSOLUTE
    ..\src\usb_endp.c                        0x00000000   Number         0  usb_endp.o ABSOLUTE
    ..\src\usb_istr.c                        0x00000000   Number         0  usb_istr.o ABSOLUTE
    ..\src\usb_prop.c                        0x00000000   Number         0  usb_prop.o ABSOLUTE
    ..\src\usb_pwr.c                         0x00000000   Number         0  usb_pwr.o ABSOLUTE
    dc.s                                     0x00000000   Number         0  dc.o ABSOLUTE
    handlers.s                               0x00000000   Number         0  handlers.o ABSOLUTE
    init.s                                   0x00000000   Number         0  init.o ABSOLUTE
    startup_stm32f10x_md.s                   0x00000000   Number         0  startup_stm32f10x_md.o ABSOLUTE
    RESET                                    0x08000000   Section      236  startup_stm32f10x_md.o(RESET)
    .ARM.Collect$$$$00000000                 0x080000ec   Section        0  entry.o(.ARM.Collect$$$$00000000)
    .ARM.Collect$$$$00000001                 0x080000ec   Section        4  entry2.o(.ARM.Collect$$$$00000001)
    .ARM.Collect$$$$00000004                 0x080000f0   Section        4  entry5.o(.ARM.Collect$$$$00000004)
    .ARM.Collect$$$$00000008                 0x080000f4   Section        0  entry7b.o(.ARM.Collect$$$$00000008)
    .ARM.Collect$$$$0000000A                 0x080000f4   Section        0  entry8b.o(.ARM.Collect$$$$0000000A)
    .ARM.Collect$$$$0000000B                 0x080000f4   Section        8  entry9a.o(.ARM.Collect$$$$0000000B)
    .ARM.Collect$$$$0000000D                 0x080000fc   Section        0  entry10a.o(.ARM.Collect$$$$0000000D)
    .ARM.Collect$$$$0000000F                 0x080000fc   Section        0  entry11a.o(.ARM.Collect$$$$0000000F)
    .ARM.Collect$$$$00002712                 0x080000fc   Section        4  entry2.o(.ARM.Collect$$$$00002712)
    __lit__00000000                          0x080000fc   Data           4  entry2.o(.ARM.Collect$$$$00002712)
    .text                                    0x08000100   Section       36  startup_stm32f10x_md.o(.text)
    .text                                    0x08000124   Section       36  init.o(.text)
    .text                                    0x08000148   Section        0  __dczerorl2.o(.text)
    i.BusFault_Handler                       0x0800019e   Section        0  stm32_it.o(i.BusFault_Handler)
    i.ByteSwap                               0x080001a0   Section        0  usb_regs.o(i.ByteSwap)
    i.CTR_LP                                 0x080001ac   Section        0  usb_int.o(i.CTR_LP)
    i.ClearDTOG_RX                           0x08000308   Section        0  usb_regs.o(i.ClearDTOG_RX)
    i.ClearDTOG_TX                           0x08000330   Section        0  usb_regs.o(i.ClearDTOG_TX)
    i.Clear_Status_Out                       0x08000358   Section        0  usb_regs.o(i.Clear_Status_Out)
    i.DataStageIn                            0x08000378   Section        0  usb_core.o(i.DataStageIn)
    DataStageIn                              0x08000379   Thumb Code   156  usb_core.o(i.DataStageIn)
    i.DataStageOut                           0x0800042c   Section        0  usb_core.o(i.DataStageOut)
    DataStageOut                             0x0800042d   Thumb Code   174  usb_core.o(i.DataStageOut)
    i.Data_Setup0                            0x080004f4   Section        0  usb_core.o(i.Data_Setup0)
    Data_Setup0                              0x080004f5   Thumb Code   376  usb_core.o(i.Data_Setup0)
    i.DebugMon_Handler                       0x08000690   Section        0  stm32_it.o(i.DebugMon_Handler)
    i.EP1_IN_Callback                        0x08000694   Section        0  usb_endp.o(i.EP1_IN_Callback)
    i.EXTI9_5_IRQHandler                     0x080006a0   Section        0  stm32_it.o(i.EXTI9_5_IRQHandler)
    i.EXTI_ClearITPendingBit                 0x080006e4   Section        0  stm32f10x_exti.o(i.EXTI_ClearITPendingBit)
    i.EXTI_GetITStatus                       0x080006f0   Section        0  stm32f10x_exti.o(i.EXTI_GetITStatus)
    i.EXTI_Init                              0x08000710   Section        0  stm32f10x_exti.o(i.EXTI_Init)
    i.GPIO_EXTILineConfig                    0x08000780   Section        0  stm32f10x_gpio.o(i.GPIO_EXTILineConfig)
    i.GPIO_Init                              0x080007a8   Section        0  stm32f10x_gpio.o(i.GPIO_Init)
    i.GPIO_ReadInputDataBit                  0x0800084a   Section        0  stm32f10x_gpio.o(i.GPIO_ReadInputDataBit)
    i.GPIO_ResetBits                         0x08000858   Section        0  stm32f10x_gpio.o(i.GPIO_ResetBits)
    i.GPIO_SetBits                           0x0800085c   Section        0  stm32f10x_gpio.o(i.GPIO_SetBits)
    i.GetEPRxAddr                            0x08000860   Section        0  usb_regs.o(i.GetEPRxAddr)
    i.GetEPTxAddr                            0x08000880   Section        0  usb_regs.o(i.GetEPTxAddr)
    i.Get_SerialNum                          0x0800089c   Section        0  hw_config.o(i.Get_SerialNum)
    i.HardFault_Handler                      0x080008d0   Section        0  stm32_it.o(i.HardFault_Handler)
    i.In0_Process                            0x080008d4   Section        0  usb_core.o(i.In0_Process)
    i.IntToUnicode                           0x08000930   Section        0  hw_config.o(i.IntToUnicode)
    IntToUnicode                             0x08000931   Thumb Code    56  hw_config.o(i.IntToUnicode)
    i.JoyState                               0x08000968   Section        0  hw_config.o(i.JoyState)
    i.Joystick_Data_Setup                    0x080009a0   Section        0  usb_prop.o(i.Joystick_Data_Setup)
    i.Joystick_GetConfigDescriptor           0x080009fc   Section        0  usb_prop.o(i.Joystick_GetConfigDescriptor)
    i.Joystick_GetDeviceDescriptor           0x08000a08   Section        0  usb_prop.o(i.Joystick_GetDeviceDescriptor)
    i.Joystick_GetHIDDescriptor              0x08000a14   Section        0  usb_prop.o(i.Joystick_GetHIDDescriptor)
    i.Joystick_GetProtocolValue              0x08000a20   Section        0  usb_prop.o(i.Joystick_GetProtocolValue)
    i.Joystick_GetReportDescriptor           0x08000a3c   Section        0  usb_prop.o(i.Joystick_GetReportDescriptor)
    i.Joystick_GetStringDescriptor           0x08000a48   Section        0  usb_prop.o(i.Joystick_GetStringDescriptor)
    i.Joystick_Get_Interface_Setting         0x08000a68   Section        0  usb_prop.o(i.Joystick_Get_Interface_Setting)
    i.Joystick_NoData_Setup                  0x08000a74   Section        0  usb_prop.o(i.Joystick_NoData_Setup)
    i.Joystick_Reset                         0x08000a94   Section        0  usb_prop.o(i.Joystick_Reset)
    i.Joystick_Send                          0x08000b30   Section        0  hw_config.o(i.Joystick_Send)
    i.Joystick_SetConfiguration              0x08000b7c   Section        0  usb_prop.o(i.Joystick_SetConfiguration)
    i.Joystick_SetDeviceAddress              0x08000b94   Section        0  usb_prop.o(i.Joystick_SetDeviceAddress)
    i.Joystick_SetProtocol                   0x08000ba0   Section        0  usb_prop.o(i.Joystick_SetProtocol)
    i.Joystick_Status_In                     0x08000bb8   Section        0  usb_prop.o(i.Joystick_Status_In)
    i.Joystick_Status_Out                    0x08000bba   Section        0  usb_prop.o(i.Joystick_Status_Out)
    i.Joystick_init                          0x08000bbc   Section        0  usb_prop.o(i.Joystick_init)
    i.MemManage_Handler                      0x08000be0   Section        0  stm32_it.o(i.MemManage_Handler)
    i.NMI_Handler                            0x08000be2   Section        0  stm32_it.o(i.NMI_Handler)
    i.NOP_Process                            0x08000be4   Section        0  usb_core.o(i.NOP_Process)
    i.NVIC_Init                              0x08000be8   Section        0  misc.o(i.NVIC_Init)
    i.NVIC_PriorityGroupConfig               0x08000c4c   Section        0  misc.o(i.NVIC_PriorityGroupConfig)
    i.NoData_Setup0                          0x08000c60   Section        0  usb_core.o(i.NoData_Setup0)
    NoData_Setup0                            0x08000c61   Thumb Code   196  usb_core.o(i.NoData_Setup0)
    i.Out0_Process                           0x08000d3c   Section        0  usb_core.o(i.Out0_Process)
    i.PMAToUserBufferCopy                    0x08000d84   Section        0  usb_mem.o(i.PMAToUserBufferCopy)
    i.PendSV_Handler                         0x08000da4   Section        0  stm32_it.o(i.PendSV_Handler)
    i.Post0_Process                          0x08000da8   Section        0  usb_core.o(i.Post0_Process)
    i.PowerOn                                0x08000dec   Section        0  usb_pwr.o(i.PowerOn)
    i.RCC_APB1PeriphClockCmd                 0x08000e20   Section        0  stm32f10x_rcc.o(i.RCC_APB1PeriphClockCmd)
    i.RCC_APB2PeriphClockCmd                 0x08000e38   Section        0  stm32f10x_rcc.o(i.RCC_APB2PeriphClockCmd)
    i.RCC_USBCLKConfig                       0x08000e50   Section        0  stm32f10x_rcc.o(i.RCC_USBCLKConfig)
    i.Resume                                 0x08000e5c   Section        0  usb_pwr.o(i.Resume)
    i.Resume_Init                            0x08000eec   Section        0  usb_pwr.o(i.Resume_Init)
    i.STM_EVAL_PBGetState                    0x08000f04   Section        0  stm3210b_eval.o(i.STM_EVAL_PBGetState)
    i.STM_EVAL_PBInit                        0x08000f1c   Section        0  stm3210b_eval.o(i.STM_EVAL_PBInit)
    i.SVC_Handler                            0x08000fb8   Section        0  stm32_it.o(i.SVC_Handler)
    i.SetBTABLE                              0x08000fbc   Section        0  usb_regs.o(i.SetBTABLE)
    i.SetDeviceAddress                       0x08000fcc   Section        0  usb_core.o(i.SetDeviceAddress)
    i.SetEPRxAddr                            0x08001014   Section        0  usb_regs.o(i.SetEPRxAddr)
    i.SetEPRxCount                           0x08001034   Section        0  usb_regs.o(i.SetEPRxCount)
    i.SetEPRxStatus                          0x08001074   Section        0  usb_regs.o(i.SetEPRxStatus)
    i.SetEPRxValid                           0x080010a4   Section        0  usb_regs.o(i.SetEPRxValid)
    i.SetEPTxAddr                            0x080010c8   Section        0  usb_regs.o(i.SetEPTxAddr)
    i.SetEPTxCount                           0x080010e8   Section        0  usb_regs.o(i.SetEPTxCount)
    i.SetEPTxStatus                          0x08001104   Section        0  usb_regs.o(i.SetEPTxStatus)
    i.SetEPTxValid                           0x08001134   Section        0  usb_regs.o(i.SetEPTxValid)
    i.SetEPType                              0x08001158   Section        0  usb_regs.o(i.SetEPType)
    i.SetISTR                                0x08001174   Section        0  usb_regs.o(i.SetISTR)
    i.SetSysClockTo72                        0x08001180   Section        0  system_stm32f10x.o(i.SetSysClockTo72)
    SetSysClockTo72                          0x08001181   Thumb Code   160  system_stm32f10x.o(i.SetSysClockTo72)
    i.Set_System                             0x08001228   Section        0  hw_config.o(i.Set_System)
    i.Set_USBClock                           0x080012b8   Section        0  hw_config.o(i.Set_USBClock)
    i.Setup0_Process                         0x080012cc   Section        0  usb_core.o(i.Setup0_Process)
    i.Standard_ClearFeature                  0x08001334   Section        0  usb_core.o(i.Standard_ClearFeature)
    i.Standard_GetConfiguration              0x08001430   Section        0  usb_core.o(i.Standard_GetConfiguration)
    i.Standard_GetDescriptorData             0x08001458   Section        0  usb_core.o(i.Standard_GetDescriptorData)
    i.Standard_GetInterface                  0x08001474   Section        0  usb_core.o(i.Standard_GetInterface)
    i.Standard_GetStatus                     0x0800149c   Section        0  usb_core.o(i.Standard_GetStatus)
    i.Standard_SetConfiguration              0x08001530   Section        0  usb_core.o(i.Standard_SetConfiguration)
    i.Standard_SetDeviceFeature              0x08001568   Section        0  usb_core.o(i.Standard_SetDeviceFeature)
    i.Standard_SetEndPointFeature            0x0800158c   Section        0  usb_core.o(i.Standard_SetEndPointFeature)
    i.Standard_SetInterface                  0x08001614   Section        0  usb_core.o(i.Standard_SetInterface)
    i.Suspend                                0x0800165c   Section        0  usb_pwr.o(i.Suspend)
    i.SysTick_Handler                        0x080016d8   Section        0  stm32_it.o(i.SysTick_Handler)
    i.SystemInit                             0x080016dc   Section        0  system_stm32f10x.o(i.SystemInit)
    i.USBWakeUp_IRQHandler                   0x0800172c   Section        0  stm32_it.o(i.USBWakeUp_IRQHandler)
    i.USB_Cable_Config                       0x08001734   Section        0  hw_config.o(i.USB_Cable_Config)
    i.USB_Init                               0x0800174c   Section        0  usb_init.o(i.USB_Init)
    i.USB_Interrupts_Config                  0x08001774   Section        0  hw_config.o(i.USB_Interrupts_Config)
    i.USB_Istr                               0x080017b0   Section        0  usb_istr.o(i.USB_Istr)
    i.USB_LP_CAN1_RX0_IRQHandler             0x080018f8   Section        0  stm32_it.o(i.USB_LP_CAN1_RX0_IRQHandler)
    i.USB_SIL_Init                           0x080018fc   Section        0  usb_sil.o(i.USB_SIL_Init)
    i.USB_SIL_Write                          0x0800191c   Section        0  usb_sil.o(i.USB_SIL_Write)
    i.UsageFault_Handler                     0x08001942   Section        0  stm32_it.o(i.UsageFault_Handler)
    i.UserToPMABufferCopy                    0x08001944   Section        0  usb_mem.o(i.UserToPMABufferCopy)
    i.__scatterload_copy                     0x08001970   Section       14  handlers.o(i.__scatterload_copy)
    i.__scatterload_null                     0x0800197e   Section        2  handlers.o(i.__scatterload_null)
    i.__scatterload_zeroinit                 0x08001980   Section       14  handlers.o(i.__scatterload_zeroinit)
    i.main                                   0x08001990   Section        0  main.o(i.main)
    .constdata                               0x080019cc   Section      168  stm3210b_eval.o(.constdata)
    .constdata                               0x08001a74   Section       18  usb_desc.o(.constdata)
    .constdata                               0x08001a86   Section       34  usb_desc.o(.constdata)
    .constdata                               0x08001aa8   Section       74  usb_desc.o(.constdata)
    .constdata                               0x08001af2   Section        4  usb_desc.o(.constdata)
    .constdata                               0x08001af6   Section       38  usb_desc.o(.constdata)
    .constdata                               0x08001b1c   Section       30  usb_desc.o(.constdata)
    .data                                    0x20000000   Section        4  usb_int.o(.data)
    .data                                    0x20000004   Section        8  usb_core.o(.data)
    .data                                    0x2000000c   Section        1  usb_init.o(.data)
    .data                                    0x20000010   Section       12  usb_init.o(.data)
    .data                                    0x2000001c   Section        2  usb_init.o(.data)
    .data                                    0x20000020   Section       72  stm3210b_eval.o(.data)
    .data                                    0x20000068   Section        2  usb_prop.o(.data)
    .data                                    0x2000006c   Section      116  usb_prop.o(.data)
    .data                                    0x200000e0   Section       36  usb_prop.o(.data)
    .data                                    0x20000104   Section       26  usb_desc.o(.data)
    .data                                    0x20000120   Section       12  usb_istr.o(.data)
    .data                                    0x2000012c   Section       28  usb_istr.o(.data)
    .data                                    0x20000148   Section       28  usb_istr.o(.data)
    .data                                    0x20000164   Section        4  usb_pwr.o(.data)
    .data                                    0x20000168   Section        1  usb_pwr.o(.data)
    .data                                    0x2000016c   Section        8  usb_pwr.o(.data)
    .data                                    0x20000174   Section        1  main.o(.data)
    .bss                                     0x20000178   Section       28  usb_init.o(.bss)
    .bss                                     0x20000194   Section       32  usb_pwr.o(.bss)
    STACK                                    0x200001b8   Section     1024  startup_stm32f10x_md.o(STACK)

    Global Symbols

    Symbol Name                              Value     Ov Type        Size  Object(Section)

    BuildAttributes$$THM_ISAv4$P$D$K$B$S$PE$A:L22UL41UL21$X:L11$S22US41US21$IEEE1$IW$USESV6$~STKCKD$USESV7$~SHL$OSPACE$EBA8$MICROLIB$REQ8$PRES8$EABIv2 0x00000000   Number         0  anon$$obj.o ABSOLUTE
    __ARM_use_no_argv                        0x00000000   Number         0  main.o ABSOLUTE
    __cpp_initialize__aeabi_                  - Undefined Weak Reference
    __cxa_finalize                            - Undefined Weak Reference
    _clock_init                               - Undefined Weak Reference
    _microlib_exit                            - Undefined Weak Reference
    __Vectors_Size                           0x000000ec   Number         0  startup_stm32f10x_md.o ABSOLUTE
    __Vectors                                0x08000000   Data           4  startup_stm32f10x_md.o(RESET)
    __Vectors_End                            0x080000ec   Data           0  startup_stm32f10x_md.o(RESET)
    __main                                   0x080000ed   Thumb Code     0  entry.o(.ARM.Collect$$$$00000000)
    _main_stk                                0x080000ed   Thumb Code     0  entry2.o(.ARM.Collect$$$$00000001)
    _main_scatterload                        0x080000f1   Thumb Code     0  entry5.o(.ARM.Collect$$$$00000004)
    __main_after_scatterload                 0x080000f5   Thumb Code     0  entry5.o(.ARM.Collect$$$$00000004)
    _main_clock                              0x080000f5   Thumb Code     0  entry7b.o(.ARM.Collect$$$$00000008)
    _main_cpp_init                           0x080000f5   Thumb Code     0  entry8b.o(.ARM.Collect$$$$0000000A)
    _main_init                               0x080000f5   Thumb Code     0  entry9a.o(.ARM.Collect$$$$0000000B)
    __rt_final_cpp                           0x080000fd   Thumb Code     0  entry10a.o(.ARM.Collect$$$$0000000D)
    __rt_final_exit                          0x080000fd   Thumb Code     0  entry11a.o(.ARM.Collect$$$$0000000F)
    Reset_Handler                            0x08000101   Thumb Code     8  startup_stm32f10x_md.o(.text)
    ADC1_2_IRQHandler                        0x0800011b   Thumb Code     0  startup_stm32f10x_md.o(.text)
    CAN1_RX1_IRQHandler                      0x0800011b   Thumb Code     0  startup_stm32f10x_md.o(.text)
    CAN1_SCE_IRQHandler                      0x0800011b   Thumb Code     0  startup_stm32f10x_md.o(.text)
    DMA1_Channel1_IRQHandler                 0x0800011b   Thumb Code     0  startup_stm32f10x_md.o(.text)
    DMA1_Channel2_IRQHandler                 0x0800011b   Thumb Code     0  startup_stm32f10x_md.o(.text)
    DMA1_Channel3_IRQHandler                 0x0800011b   Thumb Code     0  startup_stm32f10x_md.o(.text)
    DMA1_Channel4_IRQHandler                 0x0800011b   Thumb Code     0  startup_stm32f10x_md.o(.text)
    DMA1_Channel5_IRQHandler                 0x0800011b   Thumb Code     0  startup_stm32f10x_md.o(.text)
    DMA1_Channel6_IRQHandler                 0x0800011b   Thumb Code     0  startup_stm32f10x_md.o(.text)
    DMA1_Channel7_IRQHandler                 0x0800011b   Thumb Code     0  startup_stm32f10x_md.o(.text)
    EXTI0_IRQHandler                         0x0800011b   Thumb Code     0  startup_stm32f10x_md.o(.text)
    EXTI15_10_IRQHandler                     0x0800011b   Thumb Code     0  startup_stm32f10x_md.o(.text)
    EXTI1_IRQHandler                         0x0800011b   Thumb Code     0  startup_stm32f10x_md.o(.text)
    EXTI2_IRQHandler                         0x0800011b   Thumb Code     0  startup_stm32f10x_md.o(.text)
    EXTI3_IRQHandler                         0x0800011b   Thumb Code     0  startup_stm32f10x_md.o(.text)
    EXTI4_IRQHandler                         0x0800011b   Thumb Code     0  startup_stm32f10x_md.o(.text)
    FLASH_IRQHandler                         0x0800011b   Thumb Code     0  startup_stm32f10x_md.o(.text)
    I2C1_ER_IRQHandler                       0x0800011b   Thumb Code     0  startup_stm32f10x_md.o(.text)
    I2C1_EV_IRQHandler                       0x0800011b   Thumb Code     0  startup_stm32f10x_md.o(.text)
    I2C2_ER_IRQHandler                       0x0800011b   Thumb Code     0  startup_stm32f10x_md.o(.text)
    I2C2_EV_IRQHandler                       0x0800011b   Thumb Code     0  startup_stm32f10x_md.o(.text)
    PVD_IRQHandler                           0x0800011b   Thumb Code     0  startup_stm32f10x_md.o(.text)
    RCC_IRQHandler                           0x0800011b   Thumb Code     0  startup_stm32f10x_md.o(.text)
    RTCAlarm_IRQHandler                      0x0800011b   Thumb Code     0  startup_stm32f10x_md.o(.text)
    RTC_IRQHandler                           0x0800011b   Thumb Code     0  startup_stm32f10x_md.o(.text)
    SPI1_IRQHandler                          0x0800011b   Thumb Code     0  startup_stm32f10x_md.o(.text)
    SPI2_IRQHandler                          0x0800011b   Thumb Code     0  startup_stm32f10x_md.o(.text)
    TAMPER_IRQHandler                        0x0800011b   Thumb Code     0  startup_stm32f10x_md.o(.text)
    TIM1_BRK_IRQHandler                      0x0800011b   Thumb Code     0  startup_stm32f10x_md.o(.text)
    TIM1_CC_IRQHandler                       0x0800011b   Thumb Code     0  startup_stm32f10x_md.o(.text)
    TIM1_TRG_COM_IRQHandler                  0x0800011b   Thumb Code     0  startup_stm32f10x_md.o(.text)
    TIM1_UP_IRQHandler                       0x0800011b   Thumb Code     0  startup_stm32f10x_md.o(.text)
    TIM2_IRQHandler                          0x0800011b   Thumb Code     0  startup_stm32f10x_md.o(.text)
    TIM3_IRQHandler                          0x0800011b   Thumb Code     0  startup_stm32f10x_md.o(.text)
    TIM4_IRQHandler                          0x0800011b   Thumb Code     0  startup_stm32f10x_md.o(.text)
    USART1_IRQHandler                        0x0800011b   Thumb Code     0  startup_stm32f10x_md.o(.text)
    USART2_IRQHandler                        0x0800011b   Thumb Code     0  startup_stm32f10x_md.o(.text)
    USART3_IRQHandler                        0x0800011b   Thumb Code     0  startup_stm32f10x_md.o(.text)
    USB_HP_CAN1_TX_IRQHandler                0x0800011b   Thumb Code     0  startup_stm32f10x_md.o(.text)
    WWDG_IRQHandler                          0x0800011b   Thumb Code     0  startup_stm32f10x_md.o(.text)
    __scatterload                            0x08000125   Thumb Code    28  init.o(.text)
    __scatterload_rt2                        0x08000125   Thumb Code     0  init.o(.text)
    __decompress                             0x08000149   Thumb Code     0  __dczerorl2.o(.text)
    __decompress1                            0x08000149   Thumb Code    86  __dczerorl2.o(.text)
    BusFault_Handler                         0x0800019f   Thumb Code     2  stm32_it.o(i.BusFault_Handler)
    ByteSwap                                 0x080001a1   Thumb Code    10  usb_regs.o(i.ByteSwap)
    CTR_LP                                   0x080001ad   Thumb Code   318  usb_int.o(i.CTR_LP)
    ClearDTOG_RX                             0x08000309   Thumb Code    36  usb_regs.o(i.ClearDTOG_RX)
    ClearDTOG_TX                             0x08000331   Thumb Code    36  usb_regs.o(i.ClearDTOG_TX)
    Clear_Status_Out                         0x08000359   Thumb Code    28  usb_regs.o(i.Clear_Status_Out)
    DebugMon_Handler                         0x08000691   Thumb Code     2  stm32_it.o(i.DebugMon_Handler)
    EP1_IN_Callback                          0x08000695   Thumb Code     8  usb_endp.o(i.EP1_IN_Callback)
    EXTI9_5_IRQHandler                       0x080006a1   Thumb Code    58  stm32_it.o(i.EXTI9_5_IRQHandler)
    EXTI_ClearITPendingBit                   0x080006e5   Thumb Code     6  stm32f10x_exti.o(i.EXTI_ClearITPendingBit)
    EXTI_GetITStatus                         0x080006f1   Thumb Code    28  stm32f10x_exti.o(i.EXTI_GetITStatus)
    EXTI_Init                                0x08000711   Thumb Code   108  stm32f10x_exti.o(i.EXTI_Init)
    GPIO_EXTILineConfig                      0x08000781   Thumb Code    34  stm32f10x_gpio.o(i.GPIO_EXTILineConfig)
    GPIO_Init                                0x080007a9   Thumb Code   162  stm32f10x_gpio.o(i.GPIO_Init)
    GPIO_ReadInputDataBit                    0x0800084b   Thumb Code    14  stm32f10x_gpio.o(i.GPIO_ReadInputDataBit)
    GPIO_ResetBits                           0x08000859   Thumb Code     4  stm32f10x_gpio.o(i.GPIO_ResetBits)
    GPIO_SetBits                             0x0800085d   Thumb Code     4  stm32f10x_gpio.o(i.GPIO_SetBits)
    GetEPRxAddr                              0x08000861   Thumb Code    22  usb_regs.o(i.GetEPRxAddr)
    GetEPTxAddr                              0x08000881   Thumb Code    20  usb_regs.o(i.GetEPTxAddr)
    Get_SerialNum                            0x0800089d   Thumb Code    44  hw_config.o(i.Get_SerialNum)
    HardFault_Handler                        0x080008d1   Thumb Code     2  stm32_it.o(i.HardFault_Handler)
    In0_Process                              0x080008d5   Thumb Code    80  usb_core.o(i.In0_Process)
    JoyState                                 0x08000969   Thumb Code    54  hw_config.o(i.JoyState)
    Joystick_Data_Setup                      0x080009a1   Thumb Code    74  usb_prop.o(i.Joystick_Data_Setup)
    Joystick_GetConfigDescriptor             0x080009fd   Thumb Code     6  usb_prop.o(i.Joystick_GetConfigDescriptor)
    Joystick_GetDeviceDescriptor             0x08000a09   Thumb Code     6  usb_prop.o(i.Joystick_GetDeviceDescriptor)
    Joystick_GetHIDDescriptor                0x08000a15   Thumb Code     6  usb_prop.o(i.Joystick_GetHIDDescriptor)
    Joystick_GetProtocolValue                0x08000a21   Thumb Code    18  usb_prop.o(i.Joystick_GetProtocolValue)
    Joystick_GetReportDescriptor             0x08000a3d   Thumb Code     6  usb_prop.o(i.Joystick_GetReportDescriptor)
    Joystick_GetStringDescriptor             0x08000a49   Thumb Code    24  usb_prop.o(i.Joystick_GetStringDescriptor)
    Joystick_Get_Interface_Setting           0x08000a69   Thumb Code    10  usb_prop.o(i.Joystick_Get_Interface_Setting)
    Joystick_NoData_Setup                    0x08000a75   Thumb Code    26  usb_prop.o(i.Joystick_NoData_Setup)
    Joystick_Reset                           0x08000a95   Thumb Code   140  usb_prop.o(i.Joystick_Reset)
    Joystick_Send                            0x08000b31   Thumb Code    72  hw_config.o(i.Joystick_Send)
    Joystick_SetConfiguration                0x08000b7d   Thumb Code    16  usb_prop.o(i.Joystick_SetConfiguration)
    Joystick_SetDeviceAddress                0x08000b95   Thumb Code     8  usb_prop.o(i.Joystick_SetDeviceAddress)
    Joystick_SetProtocol                     0x08000ba1   Thumb Code    14  usb_prop.o(i.Joystick_SetProtocol)
    Joystick_Status_In                       0x08000bb9   Thumb Code     2  usb_prop.o(i.Joystick_Status_In)
    Joystick_Status_Out                      0x08000bbb   Thumb Code     2  usb_prop.o(i.Joystick_Status_Out)
    Joystick_init                            0x08000bbd   Thumb Code    28  usb_prop.o(i.Joystick_init)
    MemManage_Handler                        0x08000be1   Thumb Code     2  stm32_it.o(i.MemManage_Handler)
    NMI_Handler                              0x08000be3   Thumb Code     2  stm32_it.o(i.NMI_Handler)
    NOP_Process                              0x08000be5   Thumb Code     2  usb_core.o(i.NOP_Process)
    NVIC_Init                                0x08000be9   Thumb Code    94  misc.o(i.NVIC_Init)
    NVIC_PriorityGroupConfig                 0x08000c4d   Thumb Code    10  misc.o(i.NVIC_PriorityGroupConfig)
    Out0_Process                             0x08000d3d   Thumb Code    62  usb_core.o(i.Out0_Process)
    PMAToUserBufferCopy                      0x08000d85   Thumb Code    26  usb_mem.o(i.PMAToUserBufferCopy)
    PendSV_Handler                           0x08000da5   Thumb Code     2  stm32_it.o(i.PendSV_Handler)
    Post0_Process                            0x08000da9   Thumb Code    52  usb_core.o(i.Post0_Process)
    PowerOn                                  0x08000ded   Thumb Code    44  usb_pwr.o(i.PowerOn)
    RCC_APB1PeriphClockCmd                   0x08000e21   Thumb Code    18  stm32f10x_rcc.o(i.RCC_APB1PeriphClockCmd)
    RCC_APB2PeriphClockCmd                   0x08000e39   Thumb Code    18  stm32f10x_rcc.o(i.RCC_APB2PeriphClockCmd)
    RCC_USBCLKConfig                         0x08000e51   Thumb Code     8  stm32f10x_rcc.o(i.RCC_USBCLKConfig)
    Resume                                   0x08000e5d   Thumb Code   136  usb_pwr.o(i.Resume)
    Resume_Init                              0x08000eed   Thumb Code    20  usb_pwr.o(i.Resume_Init)
    STM_EVAL_PBGetState                      0x08000f05   Thumb Code    16  stm3210b_eval.o(i.STM_EVAL_PBGetState)
    STM_EVAL_PBInit                          0x08000f1d   Thumb Code   148  stm3210b_eval.o(i.STM_EVAL_PBInit)
    SVC_Handler                              0x08000fb9   Thumb Code     2  stm32_it.o(i.SVC_Handler)
    SetBTABLE                                0x08000fbd   Thumb Code    10  usb_regs.o(i.SetBTABLE)
    SetDeviceAddress                         0x08000fcd   Thumb Code    58  usb_core.o(i.SetDeviceAddress)
    SetEPRxAddr                              0x08001015   Thumb Code    24  usb_regs.o(i.SetEPRxAddr)
    SetEPRxCount                             0x08001035   Thumb Code    54  usb_regs.o(i.SetEPRxCount)
    SetEPRxStatus                            0x08001075   Thumb Code    44  usb_regs.o(i.SetEPRxStatus)
    SetEPRxValid                             0x080010a5   Thumb Code    32  usb_regs.o(i.SetEPRxValid)
    SetEPTxAddr                              0x080010c9   Thumb Code    22  usb_regs.o(i.SetEPTxAddr)
    SetEPTxCount                             0x080010e9   Thumb Code    20  usb_regs.o(i.SetEPTxCount)
    SetEPTxStatus                            0x08001105   Thumb Code    44  usb_regs.o(i.SetEPTxStatus)
    SetEPTxValid                             0x08001135   Thumb Code    32  usb_regs.o(i.SetEPTxValid)
    SetEPType                                0x08001159   Thumb Code    24  usb_regs.o(i.SetEPType)
    SetISTR                                  0x08001175   Thumb Code     6  usb_regs.o(i.SetISTR)
    Set_System                               0x08001229   Thumb Code   136  hw_config.o(i.Set_System)
    Set_USBClock                             0x080012b9   Thumb Code    20  hw_config.o(i.Set_USBClock)
    Setup0_Process                           0x080012cd   Thumb Code    92  usb_core.o(i.Setup0_Process)
    Standard_ClearFeature                    0x08001335   Thumb Code   232  usb_core.o(i.Standard_ClearFeature)
    Standard_GetConfiguration                0x08001431   Thumb Code    30  usb_core.o(i.Standard_GetConfiguration)
    Standard_GetDescriptorData               0x08001459   Thumb Code    24  usb_core.o(i.Standard_GetDescriptorData)
    Standard_GetInterface                    0x08001475   Thumb Code    30  usb_core.o(i.Standard_GetInterface)
    Standard_GetStatus                       0x0800149d   Thumb Code   130  usb_core.o(i.Standard_GetStatus)
    Standard_SetConfiguration                0x08001531   Thumb Code    42  usb_core.o(i.Standard_SetConfiguration)
    Standard_SetDeviceFeature                0x08001569   Thumb Code    26  usb_core.o(i.Standard_SetDeviceFeature)
    Standard_SetEndPointFeature              0x0800158d   Thumb Code   118  usb_core.o(i.Standard_SetEndPointFeature)
    Standard_SetInterface                    0x08001615   Thumb Code    60  usb_core.o(i.Standard_SetInterface)
    Suspend                                  0x0800165d   Thumb Code   110  usb_pwr.o(i.Suspend)
    SysTick_Handler                          0x080016d9   Thumb Code     2  stm32_it.o(i.SysTick_Handler)
    SystemInit                               0x080016dd   Thumb Code    64  system_stm32f10x.o(i.SystemInit)
    USBWakeUp_IRQHandler                     0x0800172d   Thumb Code     8  stm32_it.o(i.USBWakeUp_IRQHandler)
    USB_Cable_Config                         0x08001735   Thumb Code    20  hw_config.o(i.USB_Cable_Config)
    USB_Init                                 0x0800174d   Thumb Code    22  usb_init.o(i.USB_Init)
    USB_Interrupts_Config                    0x08001775   Thumb Code    58  hw_config.o(i.USB_Interrupts_Config)
    USB_Istr                                 0x080017b1   Thumb Code   302  usb_istr.o(i.USB_Istr)
    USB_LP_CAN1_RX0_IRQHandler               0x080018f9   Thumb Code     4  stm32_it.o(i.USB_LP_CAN1_RX0_IRQHandler)
    USB_SIL_Init                             0x080018fd   Thumb Code    24  usb_sil.o(i.USB_SIL_Init)
    USB_SIL_Write                            0x0800191d   Thumb Code    38  usb_sil.o(i.USB_SIL_Write)
    UsageFault_Handler                       0x08001943   Thumb Code     2  stm32_it.o(i.UsageFault_Handler)
    UserToPMABufferCopy                      0x08001945   Thumb Code    38  usb_mem.o(i.UserToPMABufferCopy)
    __scatterload_copy                       0x08001971   Thumb Code    14  handlers.o(i.__scatterload_copy)
    __scatterload_null                       0x0800197f   Thumb Code     2  handlers.o(i.__scatterload_null)
    __scatterload_zeroinit                   0x08001981   Thumb Code    14  handlers.o(i.__scatterload_zeroinit)
    main                                     0x08001991   Thumb Code    50  main.o(i.main)
    COM_TX_PIN                               0x080019cc   Data           4  stm3210b_eval.o(.constdata)
    COM_RX_PIN                               0x080019d0   Data           4  stm3210b_eval.o(.constdata)
    GPIO_PIN                                 0x080019d4   Data           8  stm3210b_eval.o(.constdata)
    COM_USART_CLK                            0x080019dc   Data           8  stm3210b_eval.o(.constdata)
    COM_TX_PORT_CLK                          0x080019e4   Data           8  stm3210b_eval.o(.constdata)
    COM_RX_PORT_CLK                          0x080019ec   Data           8  stm3210b_eval.o(.constdata)
    GPIO_CLK                                 0x080019f4   Data          16  stm3210b_eval.o(.constdata)
    BUTTON_PIN                               0x08001a04   Data          16  stm3210b_eval.o(.constdata)
    BUTTON_CLK                               0x08001a14   Data          32  stm3210b_eval.o(.constdata)
    BUTTON_EXTI_LINE                         0x08001a34   Data          16  stm3210b_eval.o(.constdata)
    BUTTON_PORT_SOURCE                       0x08001a44   Data          16  stm3210b_eval.o(.constdata)
    BUTTON_PIN_SOURCE                        0x08001a54   Data          16  stm3210b_eval.o(.constdata)
    BUTTON_IRQn                              0x08001a64   Data          16  stm3210b_eval.o(.constdata)
    Joystick_DeviceDescriptor                0x08001a74   Data          18  usb_desc.o(.constdata)
    Joystick_ConfigDescriptor                0x08001a86   Data          34  usb_desc.o(.constdata)
    Joystick_ReportDescriptor                0x08001aa8   Data          74  usb_desc.o(.constdata)
    Joystick_StringLangID                    0x08001af2   Data           4  usb_desc.o(.constdata)
    Joystick_StringVendor                    0x08001af6   Data          38  usb_desc.o(.constdata)
    Joystick_StringProduct                   0x08001b1c   Data          30  usb_desc.o(.constdata)
    Region$$Table$$Base                      0x08001b3c   Number         0  anon$$obj.o(Region$$Table)
    Region$$Table$$Limit                     0x08001b5c   Number         0  anon$$obj.o(Region$$Table)
    SaveRState                               0x20000000   Data           2  usb_int.o(.data)
    SaveTState                               0x20000002   Data           2  usb_int.o(.data)
    Data_Mul_MaxPacketSize                   0x20000004   Data           1  usb_core.o(.data)
    StatusInfo                               0x20000006   Data           2  usb_core.o(.data)
    DevRemoteWakeup                          0x20000008   Data           4  usb_core.o(.data)
    EPindex                                  0x2000000c   Data           1  usb_init.o(.data)
    pInformation                             0x20000010   Data           4  usb_init.o(.data)
    pProperty                                0x20000014   Data           4  usb_init.o(.data)
    pUser_Standard_Requests                  0x20000018   Data           4  usb_init.o(.data)
    wInterrupt_Mask                          0x2000001c   Data           2  usb_init.o(.data)
    COM_USART                                0x20000020   Data           8  stm3210b_eval.o(.data)
    COM_TX_PORT                              0x20000028   Data           8  stm3210b_eval.o(.data)
    COM_RX_PORT                              0x20000030   Data           8  stm3210b_eval.o(.data)
    GPIO_PORT                                0x20000038   Data          16  stm3210b_eval.o(.data)
    BUTTON_PORT                              0x20000048   Data          32  stm3210b_eval.o(.data)
    Device_Table                             0x20000068   Data           2  usb_prop.o(.data)
    ProtocolValue                            0x2000006c   Data           4  usb_prop.o(.data)
    Device_Descriptor                        0x20000070   Data           8  usb_prop.o(.data)
    Config_Descriptor                        0x20000078   Data           8  usb_prop.o(.data)
    Joystick_Report_Descriptor               0x20000080   Data           8  usb_prop.o(.data)
    Mouse_Hid_Descriptor                     0x20000088   Data           8  usb_prop.o(.data)
    Device_Property                          0x20000090   Data          48  usb_prop.o(.data)
    String_Descriptor                        0x200000c0   Data          32  usb_prop.o(.data)
    User_Standard_Requests                   0x200000e0   Data          36  usb_prop.o(.data)
    Joystick_StringSerial                    0x20000104   Data          26  usb_desc.o(.data)
    bIntPackSOF                              0x20000120   Data           1  usb_istr.o(.data)
    wIstr                                    0x20000122   Data           2  usb_istr.o(.data)
    esof_counter                             0x20000124   Data           4  usb_istr.o(.data)
    wCNTR                                    0x20000128   Data           4  usb_istr.o(.data)
    pEpInt_IN                                0x2000012c   Data          28  usb_istr.o(.data)
    pEpInt_OUT                               0x20000148   Data          28  usb_istr.o(.data)
    bDeviceState                             0x20000164   Data           4  usb_pwr.o(.data)
    fSuspendEnabled                          0x20000168   Data           1  usb_pwr.o(.data)
    ResumeS                                  0x2000016c   Data           2  usb_pwr.o(.data)
    remotewakeupon                           0x20000170   Data           4  usb_pwr.o(.data)
    PrevXferComplete                         0x20000174   Data           1  main.o(.data)
    Device_Info                              0x20000178   Data          28  usb_init.o(.bss)
    EP                                       0x20000194   Data          32  usb_pwr.o(.bss)
    __initial_sp                             0x200005b8   Data           0  startup_stm32f10x_md.o(STACK)



==============================================================================

Memory Map of the image

  Image Entry point : 0x080000ed

  Load Region LR_IROM1 (Base: 0x08000000, Size: 0x00001cd4, Max: 0x00020000, ABSOLUTE, COMPRESSED[0x00001bfc])

    Execution Region ER_IROM1 (Exec base: 0x08000000, Load base: 0x08000000, Size: 0x00001b5c, Max: 0x00020000, ABSOLUTE)

    Exec Addr    Load Addr    Size         Type   Attr      Idx    E Section Name        Object

    0x08000000   0x08000000   0x000000ec   Data   RO         1382    RESET               startup_stm32f10x_md.o
    0x080000ec   0x080000ec   0x00000000   Code   RO         2982  * .ARM.Collect$$$$00000000  mc_w.l(entry.o)
    0x080000ec   0x080000ec   0x00000004   Code   RO         2985    .ARM.Collect$$$$00000001  mc_w.l(entry2.o)
    0x080000f0   0x080000f0   0x00000004   Code   RO         2988    .ARM.Collect$$$$00000004  mc_w.l(entry5.o)
    0x080000f4   0x080000f4   0x00000000   Code   RO         2990    .ARM.Collect$$$$00000008  mc_w.l(entry7b.o)
    0x080000f4   0x080000f4   0x00000000   Code   RO         2992    .ARM.Collect$$$$0000000A  mc_w.l(entry8b.o)
    0x080000f4   0x080000f4   0x00000008   Code   RO         2993    .ARM.Collect$$$$0000000B  mc_w.l(entry9a.o)
    0x080000fc   0x080000fc   0x00000000   Code   RO         2995    .ARM.Collect$$$$0000000D  mc_w.l(entry10a.o)
    0x080000fc   0x080000fc   0x00000000   Code   RO         2997    .ARM.Collect$$$$0000000F  mc_w.l(entry11a.o)
    0x080000fc   0x080000fc   0x00000004   Code   RO         2986    .ARM.Collect$$$$00002712  mc_w.l(entry2.o)
    0x08000100   0x08000100   0x00000024   Code   RO         1383    .text               startup_stm32f10x_md.o
    0x08000124   0x08000124   0x00000024   Code   RO         2999    .text               mc_w.l(init.o)
    0x08000148   0x08000148   0x00000056   Code   RO         3009    .text               mc_w.l(__dczerorl2.o)
    0x0800019e   0x0800019e   0x00000002   Code   RO         1089    i.BusFault_Handler  stm32_it.o
    0x080001a0   0x080001a0   0x0000000a   Code   RO          194    i.ByteSwap          usb_regs.o
    0x080001aa   0x080001aa   0x00000002   PAD
    0x080001ac   0x080001ac   0x0000015c   Code   RO          567    i.CTR_LP            usb_int.o
    0x08000308   0x08000308   0x00000028   Code   RO          195    i.ClearDTOG_RX      usb_regs.o
    0x08000330   0x08000330   0x00000028   Code   RO          196    i.ClearDTOG_TX      usb_regs.o
    0x08000358   0x08000358   0x00000020   Code   RO          201    i.Clear_Status_Out  usb_regs.o
    0x08000378   0x08000378   0x000000b4   Code   RO          608    i.DataStageIn       usb_core.o
    0x0800042c   0x0800042c   0x000000c8   Code   RO          609    i.DataStageOut      usb_core.o
    0x080004f4   0x080004f4   0x0000019c   Code   RO          610    i.Data_Setup0       usb_core.o
    0x08000690   0x08000690   0x00000002   Code   RO         1090    i.DebugMon_Handler  stm32_it.o
    0x08000692   0x08000692   0x00000002   PAD
    0x08000694   0x08000694   0x0000000c   Code   RO         1034    i.EP1_IN_Callback   usb_endp.o
    0x080006a0   0x080006a0   0x00000044   Code   RO         1091    i.EXTI9_5_IRQHandler  stm32_it.o
    0x080006e4   0x080006e4   0x0000000c   Code   RO         2382    i.EXTI_ClearITPendingBit  stm32f10x_exti.o
    0x080006f0   0x080006f0   0x00000020   Code   RO         2386    i.EXTI_GetITStatus  stm32f10x_exti.o
    0x08000710   0x08000710   0x00000070   Code   RO         2387    i.EXTI_Init         stm32f10x_exti.o
    0x08000780   0x08000780   0x00000028   Code   RO         2186    i.GPIO_EXTILineConfig  stm32f10x_gpio.o
    0x080007a8   0x080007a8   0x000000a2   Code   RO         2189    i.GPIO_Init         stm32f10x_gpio.o
    0x0800084a   0x0800084a   0x0000000e   Code   RO         2193    i.GPIO_ReadInputDataBit  stm32f10x_gpio.o
    0x08000858   0x08000858   0x00000004   Code   RO         2196    i.GPIO_ResetBits    stm32f10x_gpio.o
    0x0800085c   0x0800085c   0x00000004   Code   RO         2197    i.GPIO_SetBits      stm32f10x_gpio.o
    0x08000860   0x08000860   0x00000020   Code   RO          213    i.GetEPRxAddr       usb_regs.o
    0x08000880   0x08000880   0x0000001c   Code   RO          216    i.GetEPTxAddr       usb_regs.o
    0x0800089c   0x0800089c   0x00000034   Code   RO         1300    i.Get_SerialNum     hw_config.o
    0x080008d0   0x080008d0   0x00000002   Code   RO         1092    i.HardFault_Handler  stm32_it.o
    0x080008d2   0x080008d2   0x00000002   PAD
    0x080008d4   0x080008d4   0x0000005c   Code   RO          611    i.In0_Process       usb_core.o
    0x08000930   0x08000930   0x00000038   Code   RO         1301    i.IntToUnicode      hw_config.o
    0x08000968   0x08000968   0x00000036   Code   RO         1302    i.JoyState          hw_config.o
    0x0800099e   0x0800099e   0x00000002   PAD
    0x080009a0   0x080009a0   0x0000005c   Code   RO          907    i.Joystick_Data_Setup  usb_prop.o
    0x080009fc   0x080009fc   0x0000000c   Code   RO          908    i.Joystick_GetConfigDescriptor  usb_prop.o
    0x08000a08   0x08000a08   0x0000000c   Code   RO          909    i.Joystick_GetDeviceDescriptor  usb_prop.o
    0x08000a14   0x08000a14   0x0000000c   Code   RO          910    i.Joystick_GetHIDDescriptor  usb_prop.o
    0x08000a20   0x08000a20   0x0000001c   Code   RO          911    i.Joystick_GetProtocolValue  usb_prop.o
    0x08000a3c   0x08000a3c   0x0000000c   Code   RO          912    i.Joystick_GetReportDescriptor  usb_prop.o
    0x08000a48   0x08000a48   0x00000020   Code   RO          913    i.Joystick_GetStringDescriptor  usb_prop.o
    0x08000a68   0x08000a68   0x0000000a   Code   RO          914    i.Joystick_Get_Interface_Setting  usb_prop.o
    0x08000a72   0x08000a72   0x00000002   PAD
    0x08000a74   0x08000a74   0x00000020   Code   RO          915    i.Joystick_NoData_Setup  usb_prop.o
    0x08000a94   0x08000a94   0x0000009c   Code   RO          916    i.Joystick_Reset    usb_prop.o
    0x08000b30   0x08000b30   0x0000004c   Code   RO         1304    i.Joystick_Send     hw_config.o
    0x08000b7c   0x08000b7c   0x00000018   Code   RO          917    i.Joystick_SetConfiguration  usb_prop.o
    0x08000b94   0x08000b94   0x0000000c   Code   RO          918    i.Joystick_SetDeviceAddress  usb_prop.o
    0x08000ba0   0x08000ba0   0x00000018   Code   RO          919    i.Joystick_SetProtocol  usb_prop.o
    0x08000bb8   0x08000bb8   0x00000002   Code   RO          920    i.Joystick_Status_In  usb_prop.o
    0x08000bba   0x08000bba   0x00000002   Code   RO          921    i.Joystick_Status_Out  usb_prop.o
    0x08000bbc   0x08000bbc   0x00000024   Code   RO          922    i.Joystick_init     usb_prop.o
    0x08000be0   0x08000be0   0x00000002   Code   RO         1093    i.MemManage_Handler  stm32_it.o
    0x08000be2   0x08000be2   0x00000002   Code   RO         1094    i.NMI_Handler       stm32_it.o
    0x08000be4   0x08000be4   0x00000002   Code   RO          612    i.NOP_Process       usb_core.o
    0x08000be6   0x08000be6   0x00000002   PAD
    0x08000be8   0x08000be8   0x00000064   Code   RO         2051    i.NVIC_Init         misc.o
    0x08000c4c   0x08000c4c   0x00000014   Code   RO         2052    i.NVIC_PriorityGroupConfig  misc.o
    0x08000c60   0x08000c60   0x000000dc   Code   RO          613    i.NoData_Setup0     usb_core.o
    0x08000d3c   0x08000d3c   0x00000048   Code   RO          614    i.Out0_Process      usb_core.o
    0x08000d84   0x08000d84   0x00000020   Code   RO          739    i.PMAToUserBufferCopy  usb_mem.o
    0x08000da4   0x08000da4   0x00000002   Code   RO         1095    i.PendSV_Handler    stm32_it.o
    0x08000da6   0x08000da6   0x00000002   PAD
    0x08000da8   0x08000da8   0x00000044   Code   RO          615    i.Post0_Process     usb_core.o
    0x08000dec   0x08000dec   0x00000034   Code   RO         1216    i.PowerOn           usb_pwr.o
    0x08000e20   0x08000e20   0x00000018   Code   RO         1433    i.RCC_APB1PeriphClockCmd  stm32f10x_rcc.o
    0x08000e38   0x08000e38   0x00000018   Code   RO         1435    i.RCC_APB2PeriphClockCmd  stm32f10x_rcc.o
    0x08000e50   0x08000e50   0x0000000c   Code   RO         1461    i.RCC_USBCLKConfig  stm32f10x_rcc.o
    0x08000e5c   0x08000e5c   0x00000090   Code   RO         1217    i.Resume            usb_pwr.o
    0x08000eec   0x08000eec   0x00000018   Code   RO         1218    i.Resume_Init       usb_pwr.o
    0x08000f04   0x08000f04   0x00000018   Code   RO          816    i.STM_EVAL_PBGetState  stm3210b_eval.o
    0x08000f1c   0x08000f1c   0x0000009c   Code   RO          817    i.STM_EVAL_PBInit   stm3210b_eval.o
    0x08000fb8   0x08000fb8   0x00000002   Code   RO         1096    i.SVC_Handler       stm32_it.o
    0x08000fba   0x08000fba   0x00000002   PAD
    0x08000fbc   0x08000fbc   0x00000010   Code   RO          224    i.SetBTABLE         usb_regs.o
    0x08000fcc   0x08000fcc   0x00000048   Code   RO          616    i.SetDeviceAddress  usb_core.o
    0x08001014   0x08001014   0x00000020   Code   RO          238    i.SetEPRxAddr       usb_regs.o
    0x08001034   0x08001034   0x00000040   Code   RO          239    i.SetEPRxCount      usb_regs.o
    0x08001074   0x08001074   0x00000030   Code   RO          240    i.SetEPRxStatus     usb_regs.o
    0x080010a4   0x080010a4   0x00000024   Code   RO          241    i.SetEPRxValid      usb_regs.o
    0x080010c8   0x080010c8   0x00000020   Code   RO          242    i.SetEPTxAddr       usb_regs.o
    0x080010e8   0x080010e8   0x0000001c   Code   RO          243    i.SetEPTxCount      usb_regs.o
    0x08001104   0x08001104   0x00000030   Code   RO          244    i.SetEPTxStatus     usb_regs.o
    0x08001134   0x08001134   0x00000024   Code   RO          245    i.SetEPTxValid      usb_regs.o
    0x08001158   0x08001158   0x0000001c   Code   RO          246    i.SetEPType         usb_regs.o
    0x08001174   0x08001174   0x0000000c   Code   RO          248    i.SetISTR           usb_regs.o
    0x08001180   0x08001180   0x000000a8   Code   RO         1390    i.SetSysClockTo72   system_stm32f10x.o
    0x08001228   0x08001228   0x00000090   Code   RO         1306    i.Set_System        hw_config.o
    0x080012b8   0x080012b8   0x00000014   Code   RO         1307    i.Set_USBClock      hw_config.o
    0x080012cc   0x080012cc   0x00000068   Code   RO          617    i.Setup0_Process    usb_core.o
    0x08001334   0x08001334   0x000000fc   Code   RO          618    i.Standard_ClearFeature  usb_core.o
    0x08001430   0x08001430   0x00000028   Code   RO          619    i.Standard_GetConfiguration  usb_core.o
    0x08001458   0x08001458   0x0000001c   Code   RO          620    i.Standard_GetDescriptorData  usb_core.o
    0x08001474   0x08001474   0x00000028   Code   RO          621    i.Standard_GetInterface  usb_core.o
    0x0800149c   0x0800149c   0x00000094   Code   RO          622    i.Standard_GetStatus  usb_core.o
    0x08001530   0x08001530   0x00000038   Code   RO          623    i.Standard_SetConfiguration  usb_core.o
    0x08001568   0x08001568   0x00000024   Code   RO          624    i.Standard_SetDeviceFeature  usb_core.o
    0x0800158c   0x0800158c   0x00000088   Code   RO          625    i.Standard_SetEndPointFeature  usb_core.o
    0x08001614   0x08001614   0x00000048   Code   RO          626    i.Standard_SetInterface  usb_core.o
    0x0800165c   0x0800165c   0x0000007c   Code   RO         1219    i.Suspend           usb_pwr.o
    0x080016d8   0x080016d8   0x00000002   Code   RO         1097    i.SysTick_Handler   stm32_it.o
    0x080016da   0x080016da   0x00000002   PAD
    0x080016dc   0x080016dc   0x00000050   Code   RO         1392    i.SystemInit        system_stm32f10x.o
    0x0800172c   0x0800172c   0x00000008   Code   RO         1098    i.USBWakeUp_IRQHandler  stm32_it.o
    0x08001734   0x08001734   0x00000018   Code   RO         1308    i.USB_Cable_Config  hw_config.o
    0x0800174c   0x0800174c   0x00000028   Code   RO          769    i.USB_Init          usb_init.o
    0x08001774   0x08001774   0x0000003a   Code   RO         1309    i.USB_Interrupts_Config  hw_config.o
    0x080017ae   0x080017ae   0x00000002   PAD
    0x080017b0   0x080017b0   0x00000148   Code   RO         1183    i.USB_Istr          usb_istr.o
    0x080018f8   0x080018f8   0x00000004   Code   RO         1099    i.USB_LP_CAN1_RX0_IRQHandler  stm32_it.o
    0x080018fc   0x080018fc   0x00000020   Code   RO            4    i.USB_SIL_Init      usb_sil.o
    0x0800191c   0x0800191c   0x00000026   Code   RO            6    i.USB_SIL_Write     usb_sil.o
    0x08001942   0x08001942   0x00000002   Code   RO         1100    i.UsageFault_Handler  stm32_it.o
    0x08001944   0x08001944   0x0000002c   Code   RO          740    i.UserToPMABufferCopy  usb_mem.o
    0x08001970   0x08001970   0x0000000e   Code   RO         3003    i.__scatterload_copy  mc_w.l(handlers.o)
    0x0800197e   0x0800197e   0x00000002   Code   RO         3004    i.__scatterload_null  mc_w.l(handlers.o)
    0x08001980   0x08001980   0x0000000e   Code   RO         3005    i.__scatterload_zeroinit  mc_w.l(handlers.o)
    0x0800198e   0x0800198e   0x00000002   PAD
    0x08001990   0x08001990   0x0000003c   Code   RO         1272    i.main              main.o
    0x080019cc   0x080019cc   0x000000a8   Data   RO          820    .constdata          stm3210b_eval.o
    0x08001a74   0x08001a74   0x00000012   Data   RO         1059    .constdata          usb_desc.o
    0x08001a86   0x08001a86   0x00000022   Data   RO         1060    .constdata          usb_desc.o
    0x08001aa8   0x08001aa8   0x0000004a   Data   RO         1061    .constdata          usb_desc.o
    0x08001af2   0x08001af2   0x00000004   Data   RO         1062    .constdata          usb_desc.o
    0x08001af6   0x08001af6   0x00000026   Data   RO         1063    .constdata          usb_desc.o
    0x08001b1c   0x08001b1c   0x0000001e   Data   RO         1064    .constdata          usb_desc.o
    0x08001b3a   0x08001b3a   0x00000002   PAD
    0x08001b3c   0x08001b3c   0x00000020   Data   RO         3001    Region$$Table       anon$$obj.o


    Execution Region RW_IRAM1 (Exec base: 0x20000000, Load base: 0x08001b5c, Size: 0x000005b8, Max: 0x00005000, ABSOLUTE, COMPRESSED[0x000000a0])

    Exec Addr    Load Addr    Size         Type   Attr      Idx    E Section Name        Object

    0x20000000   COMPRESSED   0x00000004   Data   RW          568    .data               usb_int.o
    0x20000004   COMPRESSED   0x00000008   Data   RW          627    .data               usb_core.o
    0x2000000c   COMPRESSED   0x00000001   Data   RW          771    .data               usb_init.o
    0x2000000d   COMPRESSED   0x00000003   PAD
    0x20000010   COMPRESSED   0x0000000c   Data   RW          772    .data               usb_init.o
    0x2000001c   COMPRESSED   0x00000002   Data   RW          774    .data               usb_init.o
    0x2000001e   COMPRESSED   0x00000002   PAD
    0x20000020   COMPRESSED   0x00000048   Data   RW          821    .data               stm3210b_eval.o
    0x20000068   COMPRESSED   0x00000002   Data   RW          923    .data               usb_prop.o
    0x2000006a   COMPRESSED   0x00000002   PAD
    0x2000006c   COMPRESSED   0x00000074   Data   RW          924    .data               usb_prop.o
    0x200000e0   COMPRESSED   0x00000024   Data   RW          925    .data               usb_prop.o
    0x20000104   COMPRESSED   0x0000001a   Data   RW         1065    .data               usb_desc.o
    0x2000011e   COMPRESSED   0x00000002   PAD
    0x20000120   COMPRESSED   0x0000000c   Data   RW         1184    .data               usb_istr.o
    0x2000012c   COMPRESSED   0x0000001c   Data   RW         1185    .data               usb_istr.o
    0x20000148   COMPRESSED   0x0000001c   Data   RW         1186    .data               usb_istr.o
    0x20000164   COMPRESSED   0x00000004   Data   RW         1221    .data               usb_pwr.o
    0x20000168   COMPRESSED   0x00000001   Data   RW         1222    .data               usb_pwr.o
    0x20000169   COMPRESSED   0x00000003   PAD
    0x2000016c   COMPRESSED   0x00000008   Data   RW         1223    .data               usb_pwr.o
    0x20000174   COMPRESSED   0x00000001   Data   RW         1274    .data               main.o
    0x20000175   COMPRESSED   0x00000003   PAD
    0x20000178        -       0x0000001c   Zero   RW          770    .bss                usb_init.o
    0x20000194        -       0x00000020   Zero   RW         1220    .bss                usb_pwr.o
    0x200001b4   COMPRESSED   0x00000004   PAD
    0x200001b8        -       0x00000400   Zero   RW         1380    STACK               startup_stm32f10x_md.o


==============================================================================

Image component sizes


      Code (inc. data)   RO Data    RW Data    ZI Data      Debug   Object Name

       484         24          0          0          0       5137   hw_config.o
        60         10          0          1          0       1124   main.o
       120         16          0          0          0       1799   misc.o
        36          8        236          0       1024        816   startup_stm32f10x_md.o
       180         16        168         72          0       3116   stm3210b_eval.o
        98         10          0          0          0       5591   stm32_it.o
       156         14          0          0          0       2572   stm32f10x_exti.o
       224          6          0          0          0       4798   stm32f10x_gpio.o
        60         16          0          0          0       1957   stm32f10x_rcc.o
       248         24          0          0          0       1645   system_stm32f10x.o
      2230        290          0          8          0      16551   usb_core.o
         0          0        198         26          0       1057   usb_desc.o
        12          4          0          0          0        458   usb_endp.o
        40         18          0         15         28       4402   usb_init.o
       348         30          0          4          0       1928   usb_int.o
       328         26          0         68          0       1595   usb_istr.o
        76         12          0          0          0       2060   usb_mem.o
       498        112          0        154          0      12588   usb_prop.o
       344         40          0         13         32       3868   usb_pwr.o
       562         98          0          0          0      11048   usb_regs.o
        70          8          0          0          0     246627   usb_sil.o

    ----------------------------------------------------------------------
      6194        782        636        376       1088     330737   Object Totals
         0          0         32          0          0          0   (incl. Generated)
        20          0          2         15          4          0   (incl. Padding)

    ----------------------------------------------------------------------

      Code (inc. data)   RO Data    RW Data    ZI Data      Debug   Library Member Name

        86          0          0          0          0          0   __dczerorl2.o
         0          0          0          0          0          0   entry.o
         0          0          0          0          0          0   entry10a.o
         0          0          0          0          0          0   entry11a.o
         8          4          0          0          0          0   entry2.o
         4          0          0          0          0          0   entry5.o
         0          0          0          0          0          0   entry7b.o
         0          0          0          0          0          0   entry8b.o
         8          4          0          0          0          0   entry9a.o
        30          0          0          0          0          0   handlers.o
        36          8          0          0          0         68   init.o

    ----------------------------------------------------------------------
       174         16          0          0          0         68   Library Totals
         2          0          0          0          0          0   (incl. Padding)

    ----------------------------------------------------------------------

      Code (inc. data)   RO Data    RW Data    ZI Data      Debug   Library Name

       172         16          0          0          0         68   mc_w.l

    ----------------------------------------------------------------------
       174         16          0          0          0         68   Library Totals

    ----------------------------------------------------------------------

==============================================================================


      Code (inc. data)   RO Data    RW Data    ZI Data      Debug   

      6368        798        636        376       1088     326045   Grand Totals
      6368        798        636        160       1088     326045   ELF Image Totals (compressed)
      6368        798        636        160          0          0   ROM Totals

==============================================================================

    Total RO  Size (Code + RO Data)                 7004 (   6.84kB)
    Total RW  Size (RW Data + ZI Data)              1464 (   1.43kB)
    Total ROM Size (Code + RO Data + RW Data)       7164 (   7.00kB)

==============================================================================

